{
    "contractName": "GenArt721Core",
    "abi": [
        {
            "constant": true,
            "inputs": [
                {
                    "name": "interfaceId",
                    "type": "bytes4"
                }
            ],
            "name": "supportsInterface",
            "outputs": [
                {
                    "name": "",
                    "type": "bool"
                }
            ],
            "payable": false,
            "stateMutability": "view",
            "type": "function"
        },
        {
            "constant": true,
            "inputs": [],
            "name": "name",
            "outputs": [
                {
                    "name": "",
                    "type": "string"
                }
            ],
            "payable": false,
            "stateMutability": "view",
            "type": "function"
        },
        {
            "constant": true,
            "inputs": [
                {
                    "name": "tokenId",
                    "type": "uint256"
                }
            ],
            "name": "getApproved",
            "outputs": [
                {
                    "name": "",
                    "type": "address"
                }
            ],
            "payable": false,
            "stateMutability": "view",
            "type": "function"
        },
        {
            "constant": false,
            "inputs": [
                {
                    "name": "to",
                    "type": "address"
                },
                {
                    "name": "tokenId",
                    "type": "uint256"
                }
            ],
            "name": "approve",
            "outputs": [],
            "payable": false,
            "stateMutability": "nonpayable",
            "type": "function"
        },
        {
            "constant": true,
            "inputs": [],
            "name": "totalSupply",
            "outputs": [
                {
                    "name": "",
                    "type": "uint256"
                }
            ],
            "payable": false,
            "stateMutability": "view",
            "type": "function"
        },
        {
            "constant": true,
            "inputs": [
                {
                    "name": "",
                    "type": "uint256"
                }
            ],
            "name": "tokenIdToProjectId",
            "outputs": [
                {
                    "name": "",
                    "type": "uint256"
                }
            ],
            "payable": false,
            "stateMutability": "view",
            "type": "function"
        },
        {
            "constant": true,
            "inputs": [
                {
                    "name": "",
                    "type": "uint256"
                }
            ],
            "name": "projectIdToCurrencySymbol",
            "outputs": [
                {
                    "name": "",
                    "type": "string"
                }
            ],
            "payable": false,
            "stateMutability": "view",
            "type": "function"
        },
        {
            "constant": false,
            "inputs": [
                {
                    "name": "from",
                    "type": "address"
                },
                {
                    "name": "to",
                    "type": "address"
                },
                {
                    "name": "tokenId",
                    "type": "uint256"
                }
            ],
            "name": "transferFrom",
            "outputs": [],
            "payable": false,
            "stateMutability": "nonpayable",
            "type": "function"
        },
        {
            "constant": true,
            "inputs": [
                {
                    "name": "",
                    "type": "uint256"
                }
            ],
            "name": "staticIpfsImageLink",
            "outputs": [
                {
                    "name": "",
                    "type": "string"
                }
            ],
            "payable": false,
            "stateMutability": "view",
            "type": "function"
        },
        {
            "constant": true,
            "inputs": [
                {
                    "name": "owner",
                    "type": "address"
                },
                {
                    "name": "index",
                    "type": "uint256"
                }
            ],
            "name": "tokenOfOwnerByIndex",
            "outputs": [
                {
                    "name": "",
                    "type": "uint256"
                }
            ],
            "payable": false,
            "stateMutability": "view",
            "type": "function"
        },
        {
            "constant": true,
            "inputs": [],
            "name": "randomizerContract",
            "outputs": [
                {
                    "name": "",
                    "type": "address"
                }
            ],
            "payable": false,
            "stateMutability": "view",
            "type": "function"
        },
        {
            "constant": true,
            "inputs": [],
            "name": "artblocksAddress",
            "outputs": [
                {
                    "name": "",
                    "type": "address"
                }
            ],
            "payable": false,
            "stateMutability": "view",
            "type": "function"
        },
        {
            "constant": true,
            "inputs": [
                {
                    "name": "",
                    "type": "address"
                }
            ],
            "name": "isWhitelisted",
            "outputs": [
                {
                    "name": "",
                    "type": "bool"
                }
            ],
            "payable": false,
            "stateMutability": "view",
            "type": "function"
        },
        {
            "constant": false,
            "inputs": [
                {
                    "name": "from",
                    "type": "address"
                },
                {
                    "name": "to",
                    "type": "address"
                },
                {
                    "name": "tokenId",
                    "type": "uint256"
                }
            ],
            "name": "safeTransferFrom",
            "outputs": [],
            "payable": false,
            "stateMutability": "nonpayable",
            "type": "function"
        },
        {
            "constant": true,
            "inputs": [
                {
                    "name": "",
                    "type": "uint256"
                }
            ],
            "name": "projectIdToCurrencyAddress",
            "outputs": [
                {
                    "name": "",
                    "type": "address"
                }
            ],
            "payable": false,
            "stateMutability": "view",
            "type": "function"
        },
        {
            "constant": true,
            "inputs": [],
            "name": "artblocksPercentage",
            "outputs": [
                {
                    "name": "",
                    "type": "uint256"
                }
            ],
            "payable": false,
            "stateMutability": "view",
            "type": "function"
        },
        {
            "constant": true,
            "inputs": [
                {
                    "name": "index",
                    "type": "uint256"
                }
            ],
            "name": "tokenByIndex",
            "outputs": [
                {
                    "name": "",
                    "type": "uint256"
                }
            ],
            "payable": false,
            "stateMutability": "view",
            "type": "function"
        },
        {
            "constant": true,
            "inputs": [
                {
                    "name": "",
                    "type": "uint256"
                }
            ],
            "name": "tokenIdToHash",
            "outputs": [
                {
                    "name": "",
                    "type": "bytes32"
                }
            ],
            "payable": false,
            "stateMutability": "view",
            "type": "function"
        },
        {
            "constant": true,
            "inputs": [
                {
                    "name": "tokenId",
                    "type": "uint256"
                }
            ],
            "name": "ownerOf",
            "outputs": [
                {
                    "name": "",
                    "type": "address"
                }
            ],
            "payable": false,
            "stateMutability": "view",
            "type": "function"
        },
        {
            "constant": true,
            "inputs": [
                {
                    "name": "owner",
                    "type": "address"
                }
            ],
            "name": "balanceOf",
            "outputs": [
                {
                    "name": "",
                    "type": "uint256"
                }
            ],
            "payable": false,
            "stateMutability": "view",
            "type": "function"
        },
        {
            "constant": true,
            "inputs": [],
            "name": "symbol",
            "outputs": [
                {
                    "name": "",
                    "type": "string"
                }
            ],
            "payable": false,
            "stateMutability": "view",
            "type": "function"
        },
        {
            "constant": false,
            "inputs": [
                {
                    "name": "to",
                    "type": "address"
                },
                {
                    "name": "approved",
                    "type": "bool"
                }
            ],
            "name": "setApprovalForAll",
            "outputs": [],
            "payable": false,
            "stateMutability": "nonpayable",
            "type": "function"
        },
        {
            "constant": true,
            "inputs": [
                {
                    "name": "",
                    "type": "uint256"
                }
            ],
            "name": "projectIdToArtistAddress",
            "outputs": [
                {
                    "name": "",
                    "type": "address"
                }
            ],
            "payable": false,
            "stateMutability": "view",
            "type": "function"
        },
        {
            "constant": true,
            "inputs": [
                {
                    "name": "",
                    "type": "address"
                }
            ],
            "name": "isMintWhitelisted",
            "outputs": [
                {
                    "name": "",
                    "type": "bool"
                }
            ],
            "payable": false,
            "stateMutability": "view",
            "type": "function"
        },
        {
            "constant": false,
            "inputs": [
                {
                    "name": "from",
                    "type": "address"
                },
                {
                    "name": "to",
                    "type": "address"
                },
                {
                    "name": "tokenId",
                    "type": "uint256"
                },
                {
                    "name": "_data",
                    "type": "bytes"
                }
            ],
            "name": "safeTransferFrom",
            "outputs": [],
            "payable": false,
            "stateMutability": "nonpayable",
            "type": "function"
        },
        {
            "constant": true,
            "inputs": [
                {
                    "name": "",
                    "type": "uint256"
                }
            ],
            "name": "projectIdToAdditionalPayeePercentage",
            "outputs": [
                {
                    "name": "",
                    "type": "uint256"
                }
            ],
            "payable": false,
            "stateMutability": "view",
            "type": "function"
        },
        {
            "constant": true,
            "inputs": [
                {
                    "name": "",
                    "type": "uint256"
                }
            ],
            "name": "projectIdToAdditionalPayee",
            "outputs": [
                {
                    "name": "",
                    "type": "address"
                }
            ],
            "payable": false,
            "stateMutability": "view",
            "type": "function"
        },
        {
            "constant": true,
            "inputs": [],
            "name": "nextProjectId",
            "outputs": [
                {
                    "name": "",
                    "type": "uint256"
                }
            ],
            "payable": false,
            "stateMutability": "view",
            "type": "function"
        },
        {
            "constant": true,
            "inputs": [
                {
                    "name": "owner",
                    "type": "address"
                },
                {
                    "name": "operator",
                    "type": "address"
                }
            ],
            "name": "isApprovedForAll",
            "outputs": [
                {
                    "name": "",
                    "type": "bool"
                }
            ],
            "payable": false,
            "stateMutability": "view",
            "type": "function"
        },
        {
            "constant": true,
            "inputs": [
                {
                    "name": "",
                    "type": "uint256"
                }
            ],
            "name": "projectIdToSecondaryMarketRoyaltyPercentage",
            "outputs": [
                {
                    "name": "",
                    "type": "uint256"
                }
            ],
            "payable": false,
            "stateMutability": "view",
            "type": "function"
        },
        {
            "constant": true,
            "inputs": [
                {
                    "name": "",
                    "type": "bytes32"
                }
            ],
            "name": "hashToTokenId",
            "outputs": [
                {
                    "name": "",
                    "type": "uint256"
                }
            ],
            "payable": false,
            "stateMutability": "view",
            "type": "function"
        },
        {
            "constant": true,
            "inputs": [
                {
                    "name": "",
                    "type": "uint256"
                }
            ],
            "name": "projectIdToPricePerTokenInWei",
            "outputs": [
                {
                    "name": "",
                    "type": "uint256"
                }
            ],
            "payable": false,
            "stateMutability": "view",
            "type": "function"
        },
        {
            "constant": true,
            "inputs": [],
            "name": "admin",
            "outputs": [
                {
                    "name": "",
                    "type": "address"
                }
            ],
            "payable": false,
            "stateMutability": "view",
            "type": "function"
        },
        {
            "inputs": [
                {
                    "name": "_tokenName",
                    "type": "string"
                },
                {
                    "name": "_tokenSymbol",
                    "type": "string"
                },
                {
                    "name": "_randomizerContract",
                    "type": "address"
                }
            ],
            "payable": false,
            "stateMutability": "nonpayable",
            "type": "constructor"
        },
        {
            "anonymous": false,
            "inputs": [
                {
                    "indexed": true,
                    "name": "_to",
                    "type": "address"
                },
                {
                    "indexed": true,
                    "name": "_tokenId",
                    "type": "uint256"
                },
                {
                    "indexed": true,
                    "name": "_projectId",
                    "type": "uint256"
                }
            ],
            "name": "Mint",
            "type": "event"
        },
        {
            "anonymous": false,
            "inputs": [
                {
                    "indexed": true,
                    "name": "from",
                    "type": "address"
                },
                {
                    "indexed": true,
                    "name": "to",
                    "type": "address"
                },
                {
                    "indexed": true,
                    "name": "tokenId",
                    "type": "uint256"
                }
            ],
            "name": "Transfer",
            "type": "event"
        },
        {
            "anonymous": false,
            "inputs": [
                {
                    "indexed": true,
                    "name": "owner",
                    "type": "address"
                },
                {
                    "indexed": true,
                    "name": "approved",
                    "type": "address"
                },
                {
                    "indexed": true,
                    "name": "tokenId",
                    "type": "uint256"
                }
            ],
            "name": "Approval",
            "type": "event"
        },
        {
            "anonymous": false,
            "inputs": [
                {
                    "indexed": true,
                    "name": "owner",
                    "type": "address"
                },
                {
                    "indexed": true,
                    "name": "operator",
                    "type": "address"
                },
                {
                    "indexed": false,
                    "name": "approved",
                    "type": "bool"
                }
            ],
            "name": "ApprovalForAll",
            "type": "event"
        },
        {
            "constant": false,
            "inputs": [
                {
                    "name": "_to",
                    "type": "address"
                },
                {
                    "name": "_projectId",
                    "type": "uint256"
                },
                {
                    "name": "_by",
                    "type": "address"
                }
            ],
            "name": "mint",
            "outputs": [
                {
                    "name": "_tokenId",
                    "type": "uint256"
                }
            ],
            "payable": false,
            "stateMutability": "nonpayable",
            "type": "function"
        },
        {
            "constant": false,
            "inputs": [
                {
                    "name": "_artblocksAddress",
                    "type": "address"
                }
            ],
            "name": "updateArtblocksAddress",
            "outputs": [],
            "payable": false,
            "stateMutability": "nonpayable",
            "type": "function"
        },
        {
            "constant": false,
            "inputs": [
                {
                    "name": "_artblocksPercentage",
                    "type": "uint256"
                }
            ],
            "name": "updateArtblocksPercentage",
            "outputs": [],
            "payable": false,
            "stateMutability": "nonpayable",
            "type": "function"
        },
        {
            "constant": false,
            "inputs": [
                {
                    "name": "_address",
                    "type": "address"
                }
            ],
            "name": "addWhitelisted",
            "outputs": [],
            "payable": false,
            "stateMutability": "nonpayable",
            "type": "function"
        },
        {
            "constant": false,
            "inputs": [
                {
                    "name": "_address",
                    "type": "address"
                }
            ],
            "name": "removeWhitelisted",
            "outputs": [],
            "payable": false,
            "stateMutability": "nonpayable",
            "type": "function"
        },
        {
            "constant": false,
            "inputs": [
                {
                    "name": "_address",
                    "type": "address"
                }
            ],
            "name": "addMintWhitelisted",
            "outputs": [],
            "payable": false,
            "stateMutability": "nonpayable",
            "type": "function"
        },
        {
            "constant": false,
            "inputs": [
                {
                    "name": "_address",
                    "type": "address"
                }
            ],
            "name": "removeMintWhitelisted",
            "outputs": [],
            "payable": false,
            "stateMutability": "nonpayable",
            "type": "function"
        },
        {
            "constant": false,
            "inputs": [
                {
                    "name": "_randomizerAddress",
                    "type": "address"
                }
            ],
            "name": "updateRandomizerAddress",
            "outputs": [],
            "payable": false,
            "stateMutability": "nonpayable",
            "type": "function"
        },
        {
            "constant": false,
            "inputs": [
                {
                    "name": "_projectId",
                    "type": "uint256"
                }
            ],
            "name": "toggleProjectIsLocked",
            "outputs": [],
            "payable": false,
            "stateMutability": "nonpayable",
            "type": "function"
        },
        {
            "constant": false,
            "inputs": [
                {
                    "name": "_projectId",
                    "type": "uint256"
                }
            ],
            "name": "toggleProjectIsActive",
            "outputs": [],
            "payable": false,
            "stateMutability": "nonpayable",
            "type": "function"
        },
        {
            "constant": false,
            "inputs": [
                {
                    "name": "_projectId",
                    "type": "uint256"
                },
                {
                    "name": "_artistAddress",
                    "type": "address"
                }
            ],
            "name": "updateProjectArtistAddress",
            "outputs": [],
            "payable": false,
            "stateMutability": "nonpayable",
            "type": "function"
        },
        {
            "constant": false,
            "inputs": [
                {
                    "name": "_projectId",
                    "type": "uint256"
                }
            ],
            "name": "toggleProjectIsPaused",
            "outputs": [],
            "payable": false,
            "stateMutability": "nonpayable",
            "type": "function"
        },
        {
            "constant": false,
            "inputs": [
                {
                    "name": "_projectName",
                    "type": "string"
                },
                {
                    "name": "_artistAddress",
                    "type": "address"
                },
                {
                    "name": "_pricePerTokenInWei",
                    "type": "uint256"
                },
                {
                    "name": "_dynamic",
                    "type": "bool"
                }
            ],
            "name": "addProject",
            "outputs": [],
            "payable": false,
            "stateMutability": "nonpayable",
            "type": "function"
        },
        {
            "constant": false,
            "inputs": [
                {
                    "name": "_projectId",
                    "type": "uint256"
                },
                {
                    "name": "_currencySymbol",
                    "type": "string"
                },
                {
                    "name": "_currencyAddress",
                    "type": "address"
                }
            ],
            "name": "updateProjectCurrencyInfo",
            "outputs": [],
            "payable": false,
            "stateMutability": "nonpayable",
            "type": "function"
        },
        {
            "constant": false,
            "inputs": [
                {
                    "name": "_projectId",
                    "type": "uint256"
                },
                {
                    "name": "_pricePerTokenInWei",
                    "type": "uint256"
                }
            ],
            "name": "updateProjectPricePerTokenInWei",
            "outputs": [],
            "payable": false,
            "stateMutability": "nonpayable",
            "type": "function"
        },
        {
            "constant": false,
            "inputs": [
                {
                    "name": "_projectId",
                    "type": "uint256"
                },
                {
                    "name": "_projectName",
                    "type": "string"
                }
            ],
            "name": "updateProjectName",
            "outputs": [],
            "payable": false,
            "stateMutability": "nonpayable",
            "type": "function"
        },
        {
            "constant": false,
            "inputs": [
                {
                    "name": "_projectId",
                    "type": "uint256"
                },
                {
                    "name": "_projectArtistName",
                    "type": "string"
                }
            ],
            "name": "updateProjectArtistName",
            "outputs": [],
            "payable": false,
            "stateMutability": "nonpayable",
            "type": "function"
        },
        {
            "constant": false,
            "inputs": [
                {
                    "name": "_projectId",
                    "type": "uint256"
                },
                {
                    "name": "_additionalPayee",
                    "type": "address"
                },
                {
                    "name": "_additionalPayeePercentage",
                    "type": "uint256"
                }
            ],
            "name": "updateProjectAdditionalPayeeInfo",
            "outputs": [],
            "payable": false,
            "stateMutability": "nonpayable",
            "type": "function"
        },
        {
            "constant": false,
            "inputs": [
                {
                    "name": "_projectId",
                    "type": "uint256"
                },
                {
                    "name": "_secondMarketRoyalty",
                    "type": "uint256"
                }
            ],
            "name": "updateProjectSecondaryMarketRoyaltyPercentage",
            "outputs": [],
            "payable": false,
            "stateMutability": "nonpayable",
            "type": "function"
        },
        {
            "constant": false,
            "inputs": [
                {
                    "name": "_projectId",
                    "type": "uint256"
                },
                {
                    "name": "_projectDescription",
                    "type": "string"
                }
            ],
            "name": "updateProjectDescription",
            "outputs": [],
            "payable": false,
            "stateMutability": "nonpayable",
            "type": "function"
        },
        {
            "constant": false,
            "inputs": [
                {
                    "name": "_projectId",
                    "type": "uint256"
                },
                {
                    "name": "_projectWebsite",
                    "type": "string"
                }
            ],
            "name": "updateProjectWebsite",
            "outputs": [],
            "payable": false,
            "stateMutability": "nonpayable",
            "type": "function"
        },
        {
            "constant": false,
            "inputs": [
                {
                    "name": "_projectId",
                    "type": "uint256"
                },
                {
                    "name": "_projectLicense",
                    "type": "string"
                }
            ],
            "name": "updateProjectLicense",
            "outputs": [],
            "payable": false,
            "stateMutability": "nonpayable",
            "type": "function"
        },
        {
            "constant": false,
            "inputs": [
                {
                    "name": "_projectId",
                    "type": "uint256"
                },
                {
                    "name": "_maxInvocations",
                    "type": "uint256"
                }
            ],
            "name": "updateProjectMaxInvocations",
            "outputs": [],
            "payable": false,
            "stateMutability": "nonpayable",
            "type": "function"
        },
        {
            "constant": false,
            "inputs": [
                {
                    "name": "_projectId",
                    "type": "uint256"
                }
            ],
            "name": "toggleProjectUseHashString",
            "outputs": [],
            "payable": false,
            "stateMutability": "nonpayable",
            "type": "function"
        },
        {
            "constant": false,
            "inputs": [
                {
                    "name": "_projectId",
                    "type": "uint256"
                },
                {
                    "name": "_script",
                    "type": "string"
                }
            ],
            "name": "addProjectScript",
            "outputs": [],
            "payable": false,
            "stateMutability": "nonpayable",
            "type": "function"
        },
        {
            "constant": false,
            "inputs": [
                {
                    "name": "_projectId",
                    "type": "uint256"
                },
                {
                    "name": "_scriptId",
                    "type": "uint256"
                },
                {
                    "name": "_script",
                    "type": "string"
                }
            ],
            "name": "updateProjectScript",
            "outputs": [],
            "payable": false,
            "stateMutability": "nonpayable",
            "type": "function"
        },
        {
            "constant": false,
            "inputs": [
                {
                    "name": "_projectId",
                    "type": "uint256"
                }
            ],
            "name": "removeProjectLastScript",
            "outputs": [],
            "payable": false,
            "stateMutability": "nonpayable",
            "type": "function"
        },
        {
            "constant": false,
            "inputs": [
                {
                    "name": "_projectId",
                    "type": "uint256"
                },
                {
                    "name": "_projectScriptJSON",
                    "type": "string"
                }
            ],
            "name": "updateProjectScriptJSON",
            "outputs": [],
            "payable": false,
            "stateMutability": "nonpayable",
            "type": "function"
        },
        {
            "constant": false,
            "inputs": [
                {
                    "name": "_projectId",
                    "type": "uint256"
                },
                {
                    "name": "_ipfsHash",
                    "type": "string"
                }
            ],
            "name": "updateProjectIpfsHash",
            "outputs": [],
            "payable": false,
            "stateMutability": "nonpayable",
            "type": "function"
        },
        {
            "constant": false,
            "inputs": [
                {
                    "name": "_projectId",
                    "type": "uint256"
                },
                {
                    "name": "_newBaseURI",
                    "type": "string"
                }
            ],
            "name": "updateProjectBaseURI",
            "outputs": [],
            "payable": false,
            "stateMutability": "nonpayable",
            "type": "function"
        },
        {
            "constant": false,
            "inputs": [
                {
                    "name": "_projectId",
                    "type": "uint256"
                },
                {
                    "name": "_projectBaseIpfsURI",
                    "type": "string"
                }
            ],
            "name": "updateProjectBaseIpfsURI",
            "outputs": [],
            "payable": false,
            "stateMutability": "nonpayable",
            "type": "function"
        },
        {
            "constant": false,
            "inputs": [
                {
                    "name": "_projectId",
                    "type": "uint256"
                }
            ],
            "name": "toggleProjectUseIpfsForStatic",
            "outputs": [],
            "payable": false,
            "stateMutability": "nonpayable",
            "type": "function"
        },
        {
            "constant": false,
            "inputs": [
                {
                    "name": "_projectId",
                    "type": "uint256"
                }
            ],
            "name": "toggleProjectIsDynamic",
            "outputs": [],
            "payable": false,
            "stateMutability": "nonpayable",
            "type": "function"
        },
        {
            "constant": false,
            "inputs": [
                {
                    "name": "_tokenId",
                    "type": "uint256"
                },
                {
                    "name": "_ipfsHash",
                    "type": "string"
                }
            ],
            "name": "overrideTokenDynamicImageWithIpfsLink",
            "outputs": [],
            "payable": false,
            "stateMutability": "nonpayable",
            "type": "function"
        },
        {
            "constant": false,
            "inputs": [
                {
                    "name": "_tokenId",
                    "type": "uint256"
                }
            ],
            "name": "clearTokenIpfsImageUri",
            "outputs": [],
            "payable": false,
            "stateMutability": "nonpayable",
            "type": "function"
        },
        {
            "constant": true,
            "inputs": [
                {
                    "name": "_projectId",
                    "type": "uint256"
                }
            ],
            "name": "projectDetails",
            "outputs": [
                {
                    "name": "projectName",
                    "type": "string"
                },
                {
                    "name": "artist",
                    "type": "string"
                },
                {
                    "name": "description",
                    "type": "string"
                },
                {
                    "name": "website",
                    "type": "string"
                },
                {
                    "name": "license",
                    "type": "string"
                },
                {
                    "name": "dynamic",
                    "type": "bool"
                }
            ],
            "payable": false,
            "stateMutability": "view",
            "type": "function"
        },
        {
            "constant": true,
            "inputs": [
                {
                    "name": "_projectId",
                    "type": "uint256"
                }
            ],
            "name": "projectTokenInfo",
            "outputs": [
                {
                    "name": "artistAddress",
                    "type": "address"
                },
                {
                    "name": "pricePerTokenInWei",
                    "type": "uint256"
                },
                {
                    "name": "invocations",
                    "type": "uint256"
                },
                {
                    "name": "maxInvocations",
                    "type": "uint256"
                },
                {
                    "name": "active",
                    "type": "bool"
                },
                {
                    "name": "additionalPayee",
                    "type": "address"
                },
                {
                    "name": "additionalPayeePercentage",
                    "type": "uint256"
                },
                {
                    "name": "currency",
                    "type": "string"
                },
                {
                    "name": "currencyAddress",
                    "type": "address"
                }
            ],
            "payable": false,
            "stateMutability": "view",
            "type": "function"
        },
        {
            "constant": true,
            "inputs": [
                {
                    "name": "_projectId",
                    "type": "uint256"
                }
            ],
            "name": "projectScriptInfo",
            "outputs": [
                {
                    "name": "scriptJSON",
                    "type": "string"
                },
                {
                    "name": "scriptCount",
                    "type": "uint256"
                },
                {
                    "name": "useHashString",
                    "type": "bool"
                },
                {
                    "name": "ipfsHash",
                    "type": "string"
                },
                {
                    "name": "locked",
                    "type": "bool"
                },
                {
                    "name": "paused",
                    "type": "bool"
                }
            ],
            "payable": false,
            "stateMutability": "view",
            "type": "function"
        },
        {
            "constant": true,
            "inputs": [
                {
                    "name": "_projectId",
                    "type": "uint256"
                },
                {
                    "name": "_index",
                    "type": "uint256"
                }
            ],
            "name": "projectScriptByIndex",
            "outputs": [
                {
                    "name": "",
                    "type": "string"
                }
            ],
            "payable": false,
            "stateMutability": "view",
            "type": "function"
        },
        {
            "constant": true,
            "inputs": [
                {
                    "name": "_projectId",
                    "type": "uint256"
                }
            ],
            "name": "projectURIInfo",
            "outputs": [
                {
                    "name": "projectBaseURI",
                    "type": "string"
                },
                {
                    "name": "projectBaseIpfsURI",
                    "type": "string"
                },
                {
                    "name": "useIpfs",
                    "type": "bool"
                }
            ],
            "payable": false,
            "stateMutability": "view",
            "type": "function"
        },
        {
            "constant": true,
            "inputs": [
                {
                    "name": "_projectId",
                    "type": "uint256"
                }
            ],
            "name": "projectShowAllTokens",
            "outputs": [
                {
                    "name": "",
                    "type": "uint256[]"
                }
            ],
            "payable": false,
            "stateMutability": "view",
            "type": "function"
        },
        {
            "constant": true,
            "inputs": [
                {
                    "name": "owner",
                    "type": "address"
                }
            ],
            "name": "tokensOfOwner",
            "outputs": [
                {
                    "name": "",
                    "type": "uint256[]"
                }
            ],
            "payable": false,
            "stateMutability": "view",
            "type": "function"
        },
        {
            "constant": true,
            "inputs": [
                {
                    "name": "_tokenId",
                    "type": "uint256"
                }
            ],
            "name": "getRoyaltyData",
            "outputs": [
                {
                    "name": "artistAddress",
                    "type": "address"
                },
                {
                    "name": "additionalPayee",
                    "type": "address"
                },
                {
                    "name": "additionalPayeePercentage",
                    "type": "uint256"
                },
                {
                    "name": "royaltyFeeByID",
                    "type": "uint256"
                }
            ],
            "payable": false,
            "stateMutability": "view",
            "type": "function"
        },
        {
            "constant": true,
            "inputs": [
                {
                    "name": "_tokenId",
                    "type": "uint256"
                }
            ],
            "name": "tokenURI",
            "outputs": [
                {
                    "name": "",
                    "type": "string"
                }
            ],
            "payable": false,
            "stateMutability": "view",
            "type": "function"
        }
    ],
    "bytecode": "0x6080604052600a6015556003601e553480156200001b57600080fd5b506040516200a71e3803806200a71e833981018060405260608110156200004157600080fd5b8101908080516401000000008111156200005a57600080fd5b828101905060208101848111156200007157600080fd5b81518560018202830111640100000000821117156200008f57600080fd5b50509291906020018051640100000000811115620000ac57600080fd5b82810190506020810184811115620000c357600080fd5b8151856001820283011164010000000082111715620000e157600080fd5b5050929190602001805190602001909291905050508282620001356301ffc9a77c01000000000000000000000000000000000000000000000000000000000262000344640100000000026401000000009004565b620001726380ac58cd7c01000000000000000000000000000000000000000000000000000000000262000344640100000000026401000000009004565b620001af63780e9d637c01000000000000000000000000000000000000000000000000000000000262000344640100000000026401000000009004565b8160099080519060200190620001c79291906200046b565b5080600a9080519060200190620001e09291906200046b565b506200021e635b5e139f7c01000000000000000000000000000000000000000000000000000000000262000344640100000000026401000000009004565b505033601b60006101000a81548173ffffffffffffffffffffffffffffffffffffffff021916908373ffffffffffffffffffffffffffffffffffffffff1602179055506001601c60003373ffffffffffffffffffffffffffffffffffffffff1673ffffffffffffffffffffffffffffffffffffffff16815260200190815260200160002060006101000a81548160ff02191690831515021790555033601460006101000a81548173ffffffffffffffffffffffffffffffffffffffff021916908373ffffffffffffffffffffffffffffffffffffffff16021790555080600b60006101000a81548173ffffffffffffffffffffffffffffffffffffffff021916908373ffffffffffffffffffffffffffffffffffffffff1602179055505050506200051a565b63ffffffff7c010000000000000000000000000000000000000000000000000000000002817bffffffffffffffffffffffffffffffffffffffffffffffffffffffff191614151515620003ff576040517f08c379a000000000000000000000000000000000000000000000000000000000815260040180806020018281038252601c8152602001807f4552433136353a20696e76616c696420696e746572666163652069640000000081525060200191505060405180910390fd5b6001600080837bffffffffffffffffffffffffffffffffffffffffffffffffffffffff19167bffffffffffffffffffffffffffffffffffffffffffffffffffffffff1916815260200190815260200160002060006101000a81548160ff02191690831515021790555050565b828054600181600116156101000203166002900490600052602060002090601f016020900481019282601f10620004ae57805160ff1916838001178555620004df565b82800160010185558215620004df579182015b82811115620004de578251825591602001919060010190620004c1565b5b509050620004ee9190620004f2565b5090565b6200051791905b8082111562000513576000816000905550600101620004f9565b5090565b90565b61a1f4806200052a6000396000f3fe608060405260043610610385576000357c0100000000000000000000000000000000000000000000000000000000900463ffffffff16806301ffc9a71461038a57806306e1db17146103fc57806306fdde031461044d578063081812fc146104dd578063095ea7b3146105585780630d170673146105b35780630d4d15131461068557806310154bad1461071457806318160ddd146107655780631b689c0b1461079057806320927ec9146107df57806323b872dd1461089357806325b75d681461090e578063261eb4e5146109e05780632790182214610a94578063291d954914610acf5780632d9c020514610b205780632f745c5914610c4b57806336c7c12c14610cba5780633785996314610d115780633949f90614610de35780633af32abf14610e3a5780633bdbd5c414610ea35780633e48e84814610ede5780633fef6c2a14610fb057806342842e0e14611082578063498dd0c1146110fd5780634aa6d417146111785780634f029c39146112c05780634f6ccce7146112eb5780635c088dcc1461133a578063621a1f74146113755780636352211e146113c457806369d14faf1461143f5780636bd5d5911461149a5780636c907b7f1461156c57806370a08231146115bd578063826fc391146116225780638462151c14611667578063867f1a3b1461170d5780638ba8f14d1461175e5780638bddb0a6146117995780638c2c3622146117ea5780638c3c9cdd1461195e5780638dd91a5614611a1c57806393961c6614611c8b57806395d89b4114611d5d57806397dc86cf14611ded578063a11ec70a14611e32578063a22cb46514611e6d578063a3b2cca614611eca578063a47d29cb14611f9c578063a65ff74c14612017578063acad0124146120d3578063ad0305ce146121a5578063b1656ba31461220e578063b7b04fae146122ea578063b88d4fde146123bc578063bee04f9c146124ce578063c34a03b51461255e578063c6d73231146125a3578063c87b56dd14612675578063cc74234b14612729578063d03c390c14612778578063d195b365146127b3578063d7b044b6146128a5578063db2ff86114612920578063dce5d8581461295b578063e13208b414612996578063e3f59c44146129fb578063e935b7b114612af9578063e985e9c514612b24578063ed6df98214612bad578063ed8abfda14612be8578063f51f74a914612c37578063f70c0f0414612c86578063f851a44014612cd5575b600080fd5b34801561039657600080fd5b506103e2600480360360208110156103ad57600080fd5b8101908080357bffffffffffffffffffffffffffffffffffffffffffffffffffffffff19169060200190929190505050612d2c565b604051808215151515815260200191505060405180910390f35b34801561040857600080fd5b5061044b6004803603602081101561041f57600080fd5b81019080803573ffffffffffffffffffffffffffffffffffffffff169060200190929190505050612d93565b005b34801561045957600080fd5b50610462612e9c565b6040518080602001828103825283818151815260200191508051906020019080838360005b838110156104a2578082015181840152602081019050610487565b50505050905090810190601f1680156104cf5780820380516001836020036101000a031916815260200191505b509250505060405180910390f35b3480156104e957600080fd5b506105166004803603602081101561050057600080fd5b8101908080359060200190929190505050612f3e565b604051808273ffffffffffffffffffffffffffffffffffffffff1673ffffffffffffffffffffffffffffffffffffffff16815260200191505060405180910390f35b34801561056457600080fd5b506105b16004803603604081101561057b57600080fd5b81019080803573ffffffffffffffffffffffffffffffffffffffff1690602001909291908035906020019092919050505061301e565b005b3480156105bf57600080fd5b50610683600480360360408110156105d657600080fd5b8101908080359060200190929190803590602001906401000000008111156105fd57600080fd5b82018360208201111561060f57600080fd5b8035906020019184600183028401116401000000008311171561063157600080fd5b91908080601f016020809104026020016040519081016040528093929190818152602001838380828437600081840152601f19601f820116905080830192505050505050509192919290505050613281565b005b34801561069157600080fd5b506106fe600480360360608110156106a857600080fd5b81019080803573ffffffffffffffffffffffffffffffffffffffff16906020019092919080359060200190929190803573ffffffffffffffffffffffffffffffffffffffff169060200190929190505050613477565b6040518082815260200191505060405180910390f35b34801561072057600080fd5b506107636004803603602081101561073757600080fd5b81019080803573ffffffffffffffffffffffffffffffffffffffff169060200190929190505050613833565b005b34801561077157600080fd5b5061077a613953565b6040518082815260200191505060405180910390f35b34801561079c57600080fd5b506107c9600480360360208110156107b357600080fd5b8101908080359060200190929190505050613960565b6040518082815260200191505060405180910390f35b3480156107eb57600080fd5b506108186004803603602081101561080257600080fd5b8101908080359060200190929190505050613978565b6040518080602001828103825283818151815260200191508051906020019080838360005b8381101561085857808201518184015260208101905061083d565b50505050905090810190601f1680156108855780820380516001836020036101000a031916815260200191505b509250505060405180910390f35b34801561089f57600080fd5b5061090c600480360360608110156108b657600080fd5b81019080803573ffffffffffffffffffffffffffffffffffffffff169060200190929190803573ffffffffffffffffffffffffffffffffffffffff16906020019092919080359060200190929190505050613a28565b005b34801561091a57600080fd5b506109de6004803603604081101561093157600080fd5b81019080803590602001909291908035906020019064010000000081111561095857600080fd5b82018360208201111561096a57600080fd5b8035906020019184600183028401116401000000008311171561098c57600080fd5b91908080601f016020809104026020016040519081016040528093929190818152602001838380828437600081840152601f19601f820116905080830192505050505050509192919290505050613adc565b005b3480156109ec57600080fd5b50610a1960048036036020811015610a0357600080fd5b8101908080359060200190929190505050613cd2565b6040518080602001828103825283818151815260200191508051906020019080838360005b83811015610a59578082015181840152602081019050610a3e565b50505050905090810190601f168015610a865780820380516001836020036101000a031916815260200191505b509250505060405180910390f35b348015610aa057600080fd5b50610acd60048036036020811015610ab757600080fd5b8101908080359060200190929190505050613d82565b005b348015610adb57600080fd5b50610b1e60048036036020811015610af257600080fd5b81019080803573ffffffffffffffffffffffffffffffffffffffff169060200190929190505050613ea2565b005b348015610b2c57600080fd5b50610b5960048036036020811015610b4357600080fd5b8101908080359060200190929190505050613fc2565b60405180806020018060200184151515158152602001838103835286818151815260200191508051906020019080838360005b83811015610ba7578082015181840152602081019050610b8c565b50505050905090810190601f168015610bd45780820380516001836020036101000a031916815260200191505b50838103825285818151815260200191508051906020019080838360005b83811015610c0d578082015181840152602081019050610bf2565b50505050905090810190601f168015610c3a5780820380516001836020036101000a031916815260200191505b509550505050505060405180910390f35b348015610c5757600080fd5b50610ca460048036036040811015610c6e57600080fd5b81019080803573ffffffffffffffffffffffffffffffffffffffff16906020019092919080359060200190929190505050614156565b6040518082815260200191505060405180910390f35b348015610cc657600080fd5b50610ccf61425c565b604051808273ffffffffffffffffffffffffffffffffffffffff1673ffffffffffffffffffffffffffffffffffffffff16815260200191505060405180910390f35b348015610d1d57600080fd5b50610de160048036036040811015610d3457600080fd5b810190808035906020019092919080359060200190640100000000811115610d5b57600080fd5b820183602082011115610d6d57600080fd5b80359060200191846001830284011164010000000083111715610d8f57600080fd5b91908080601f016020809104026020016040519081016040528093929190818152602001838380828437600081840152601f19601f820116905080830192505050505050509192919290505050614282565b005b348015610def57600080fd5b50610df8614389565b604051808273ffffffffffffffffffffffffffffffffffffffff1673ffffffffffffffffffffffffffffffffffffffff16815260200191505060405180910390f35b348015610e4657600080fd5b50610e8960048036036020811015610e5d57600080fd5b81019080803573ffffffffffffffffffffffffffffffffffffffff1690602001909291905050506143af565b604051808215151515815260200191505060405180910390f35b348015610eaf57600080fd5b50610edc60048036036020811015610ec657600080fd5b81019080803590602001909291905050506143cf565b005b348015610eea57600080fd5b50610fae60048036036040811015610f0157600080fd5b810190808035906020019092919080359060200190640100000000811115610f2857600080fd5b820183602082011115610f3a57600080fd5b80359060200191846001830284011164010000000083111715610f5c57600080fd5b91908080601f016020809104026020016040519081016040528093929190818152602001838380828437600081840152601f19601f82011690508083019250505050505050919291929050505061472c565b005b348015610fbc57600080fd5b5061108060048036036040811015610fd357600080fd5b810190808035906020019092919080359060200190640100000000811115610ffa57600080fd5b82018360208201111561100c57600080fd5b8035906020019184600183028401116401000000008311171561102e57600080fd5b91908080601f016020809104026020016040519081016040528093929190818152602001838380828437600081840152601f19601f820116905080830192505050505050509192919290505050614833565b005b34801561108e57600080fd5b506110fb600480360360608110156110a557600080fd5b81019080803573ffffffffffffffffffffffffffffffffffffffff169060200190929190803573ffffffffffffffffffffffffffffffffffffffff16906020019092919080359060200190929190505050614a29565b005b34801561110957600080fd5b506111366004803603602081101561112057600080fd5b8101908080359060200190929190505050614a4a565b604051808273ffffffffffffffffffffffffffffffffffffffff1673ffffffffffffffffffffffffffffffffffffffff16815260200191505060405180910390f35b34801561118457600080fd5b506111b16004803603602081101561119b57600080fd5b8101908080359060200190929190505050614a7d565b604051808060200187815260200186151515158152602001806020018515151515815260200184151515158152602001838103835289818151815260200191508051906020019080838360005b838110156112195780820151818401526020810190506111fe565b50505050905090810190601f1680156112465780820380516001836020036101000a031916815260200191505b50838103825286818151815260200191508051906020019080838360005b8381101561127f578082015181840152602081019050611264565b50505050905090810190601f1680156112ac5780820380516001836020036101000a031916815260200191505b509850505050505050505060405180910390f35b3480156112cc57600080fd5b506112d5614c7d565b6040518082815260200191505060405180910390f35b3480156112f757600080fd5b506113246004803603602081101561130e57600080fd5b8101908080359060200190929190505050614c83565b6040518082815260200191505060405180910390f35b34801561134657600080fd5b506113736004803603602081101561135d57600080fd5b8101908080359060200190929190505050614d4a565b005b34801561138157600080fd5b506113ae6004803603602081101561139857600080fd5b8101908080359060200190929190505050614f36565b6040518082815260200191505060405180910390f35b3480156113d057600080fd5b506113fd600480360360208110156113e757600080fd5b8101908080359060200190929190505050614f4e565b604051808273ffffffffffffffffffffffffffffffffffffffff1673ffffffffffffffffffffffffffffffffffffffff16815260200191505060405180910390f35b34801561144b57600080fd5b506114986004803603604081101561146257600080fd5b8101908080359060200190929190803573ffffffffffffffffffffffffffffffffffffffff16906020019092919050505061505b565b005b3480156114a657600080fd5b5061156a600480360360408110156114bd57600080fd5b8101908080359060200190929190803590602001906401000000008111156114e457600080fd5b8201836020820111156114f657600080fd5b8035906020019184600183028401116401000000008311171561151857600080fd5b91908080601f016020809104026020016040519081016040528093929190818152602001838380828437600081840152601f19601f8201169050808301925050505050505091929192905050506151dd565b005b34801561157857600080fd5b506115bb6004803603602081101561158f57600080fd5b81019080803573ffffffffffffffffffffffffffffffffffffffff1690602001909291905050506152e4565b005b3480156115c957600080fd5b5061160c600480360360208110156115e057600080fd5b81019080803573ffffffffffffffffffffffffffffffffffffffff1690602001909291905050506153e9565b6040518082815260200191505060405180910390f35b34801561162e57600080fd5b506116656004803603604081101561164557600080fd5b810190808035906020019092919080359060200190929190505050615503565b005b34801561167357600080fd5b506116b66004803603602081101561168a57600080fd5b81019080803573ffffffffffffffffffffffffffffffffffffffff1690602001909291905050506157e1565b6040518080602001828103825283818151815260200191508051906020019060200280838360005b838110156116f95780820151818401526020810190506116de565b505050509050019250505060405180910390f35b34801561171957600080fd5b5061175c6004803603602081101561173057600080fd5b81019080803573ffffffffffffffffffffffffffffffffffffffff169060200190929190505050615842565b005b34801561176a57600080fd5b506117976004803603602081101561178157600080fd5b8101908080359060200190929190505050615962565b005b3480156117a557600080fd5b506117e8600480360360208110156117bc57600080fd5b81019080803573ffffffffffffffffffffffffffffffffffffffff169060200190929190505050615af0565b005b3480156117f657600080fd5b506118236004803603602081101561180d57600080fd5b8101908080359060200190929190505050615c10565b604051808a73ffffffffffffffffffffffffffffffffffffffff1673ffffffffffffffffffffffffffffffffffffffff168152602001898152602001888152602001878152602001861515151581526020018573ffffffffffffffffffffffffffffffffffffffff1673ffffffffffffffffffffffffffffffffffffffff168152602001848152602001806020018373ffffffffffffffffffffffffffffffffffffffff1673ffffffffffffffffffffffffffffffffffffffff168152602001828103825284818151815260200191508051906020019080838360005b8381101561191b578082015181840152602081019050611900565b50505050905090810190601f1680156119485780820380516001836020036101000a031916815260200191505b509a505050505050505050505060405180910390f35b34801561196a57600080fd5b506119a16004803603604081101561198157600080fd5b810190808035906020019092919080359060200190929190505050615e00565b6040518080602001828103825283818151815260200191508051906020019080838360005b838110156119e15780820151818401526020810190506119c6565b50505050905090810190601f168015611a0e5780820380516001836020036101000a031916815260200191505b509250505060405180910390f35b348015611a2857600080fd5b50611a5560048036036020811015611a3f57600080fd5b8101908080359060200190929190505050615eca565b6040518080602001806020018060200180602001806020018715151515815260200186810386528c818151815260200191508051906020019080838360005b83811015611aaf578082015181840152602081019050611a94565b50505050905090810190601f168015611adc5780820380516001836020036101000a031916815260200191505b5086810385528b818151815260200191508051906020019080838360005b83811015611b15578082015181840152602081019050611afa565b50505050905090810190601f168015611b425780820380516001836020036101000a031916815260200191505b5086810384528a818151815260200191508051906020019080838360005b83811015611b7b578082015181840152602081019050611b60565b50505050905090810190601f168015611ba85780820380516001836020036101000a031916815260200191505b50868103835289818151815260200191508051906020019080838360005b83811015611be1578082015181840152602081019050611bc6565b50505050905090810190601f168015611c0e5780820380516001836020036101000a031916815260200191505b50868103825288818151815260200191508051906020019080838360005b83811015611c47578082015181840152602081019050611c2c565b50505050905090810190601f168015611c745780820380516001836020036101000a031916815260200191505b509b50505050505050505050505060405180910390f35b348015611c9757600080fd5b50611d5b60048036036040811015611cae57600080fd5b810190808035906020019092919080359060200190640100000000811115611cd557600080fd5b820183602082011115611ce757600080fd5b80359060200191846001830284011164010000000083111715611d0957600080fd5b91908080601f016020809104026020016040519081016040528093929190818152602001838380828437600081840152601f19601f820116905080830192505050505050509192919290505050616278565b005b348015611d6957600080fd5b50611d7261638f565b6040518080602001828103825283818151815260200191508051906020019080838360005b83811015611db2578082015181840152602081019050611d97565b50505050905090810190601f168015611ddf5780820380516001836020036101000a031916815260200191505b509250505060405180910390f35b348015611df957600080fd5b50611e3060048036036040811015611e1057600080fd5b810190808035906020019092919080359060200190929190505050616431565b005b348015611e3e57600080fd5b50611e6b60048036036020811015611e5557600080fd5b8101908080359060200190929190505050616525565b005b348015611e7957600080fd5b50611ec860048036036040811015611e9057600080fd5b81019080803573ffffffffffffffffffffffffffffffffffffffff169060200190929190803515159060200190929190505050616652565b005b348015611ed657600080fd5b50611f9a60048036036040811015611eed57600080fd5b810190808035906020019092919080359060200190640100000000811115611f1457600080fd5b820183602082011115611f2657600080fd5b80359060200191846001830284011164010000000083111715611f4857600080fd5b91908080601f016020809104026020016040519081016040528093929190818152602001838380828437600081840152601f19601f8201169050808301925050505050505091929192905050506167f7565b005b348015611fa857600080fd5b50611fd560048036036020811015611fbf57600080fd5b81019080803590602001909291905050506168fe565b604051808273ffffffffffffffffffffffffffffffffffffffff1673ffffffffffffffffffffffffffffffffffffffff16815260200191505060405180910390f35b34801561202357600080fd5b506120506004803603602081101561203a57600080fd5b8101908080359060200190929190505050616931565b604051808573ffffffffffffffffffffffffffffffffffffffff1673ffffffffffffffffffffffffffffffffffffffff1681526020018473ffffffffffffffffffffffffffffffffffffffff1673ffffffffffffffffffffffffffffffffffffffff16815260200183815260200182815260200194505050505060405180910390f35b3480156120df57600080fd5b506121a3600480360360408110156120f657600080fd5b81019080803590602001909291908035906020019064010000000081111561211d57600080fd5b82018360208201111561212f57600080fd5b8035906020019184600183028401116401000000008311171561215157600080fd5b91908080601f016020809104026020016040519081016040528093929190818152602001838380828437600081840152601f19601f820116905080830192505050505050509192919290505050616a22565b005b3480156121b157600080fd5b506121f4600480360360208110156121c857600080fd5b81019080803573ffffffffffffffffffffffffffffffffffffffff169060200190929190505050616c83565b604051808215151515815260200191505060405180910390f35b34801561221a57600080fd5b506122e86004803603606081101561223157600080fd5b8101908080359060200190929190803590602001909291908035906020019064010000000081111561226257600080fd5b82018360208201111561227457600080fd5b8035906020019184600183028401116401000000008311171561229657600080fd5b91908080601f016020809104026020016040519081016040528093929190818152602001838380828437600081840152601f19601f820116905080830192505050505050509192919290505050616ca3565b005b3480156122f657600080fd5b506123ba6004803603604081101561230d57600080fd5b81019080803590602001909291908035906020019064010000000081111561233457600080fd5b82018360208201111561234657600080fd5b8035906020019184600183028401116401000000008311171561236857600080fd5b91908080601f016020809104026020016040519081016040528093929190818152602001838380828437600081840152601f19601f820116905080830192505050505050509192919290505050616f38565b005b3480156123c857600080fd5b506124cc600480360360808110156123df57600080fd5b81019080803573ffffffffffffffffffffffffffffffffffffffff169060200190929190803573ffffffffffffffffffffffffffffffffffffffff169060200190929190803590602001909291908035906020019064010000000081111561244657600080fd5b82018360208201111561245857600080fd5b8035906020019184600183028401116401000000008311171561247a57600080fd5b91908080601f016020809104026020016040519081016040528093929190818152602001838380828437600081840152601f19601f82011690508083019250505050505050919291929050505061712e565b005b3480156124da57600080fd5b50612507600480360360208110156124f157600080fd5b81019080803590602001909291905050506171e5565b6040518080602001828103825283818151815260200191508051906020019060200280838360005b8381101561254a57808201518184015260208101905061252f565b505050509050019250505060405180910390f35b34801561256a57600080fd5b506125a16004803603604081101561258157600080fd5b810190808035906020019092919080359060200190929190505050617250565b005b3480156125af57600080fd5b50612673600480360360408110156125c657600080fd5b8101908080359060200190929190803590602001906401000000008111156125ed57600080fd5b8201836020820111156125ff57600080fd5b8035906020019184600183028401116401000000008311171561262157600080fd5b91908080601f016020809104026020016040519081016040528093929190818152602001838380828437600081840152601f19601f8201169050808301925050505050505091929192905050506173bd565b005b34801561268157600080fd5b506126ae6004803603602081101561269857600080fd5b81019080803590602001909291905050506175b3565b6040518080602001828103825283818151815260200191508051906020019080838360005b838110156126ee5780820151818401526020810190506126d3565b50505050905090810190601f16801561271b5780820380516001836020036101000a031916815260200191505b509250505060405180910390f35b34801561273557600080fd5b506127626004803603602081101561274c57600080fd5b8101908080359060200190929190505050617acb565b6040518082815260200191505060405180910390f35b34801561278457600080fd5b506127b16004803603602081101561279b57600080fd5b8101908080359060200190929190505050617ae3565b005b3480156127bf57600080fd5b506128a3600480360360608110156127d657600080fd5b8101908080359060200190929190803590602001906401000000008111156127fd57600080fd5b82018360208201111561280f57600080fd5b8035906020019184600183028401116401000000008311171561283157600080fd5b91908080601f016020809104026020016040519081016040528093929190818152602001838380828437600081840152601f19601f820116905080830192505050505050509192919290803573ffffffffffffffffffffffffffffffffffffffff169060200190929190505050617bf9565b005b3480156128b157600080fd5b506128de600480360360208110156128c857600080fd5b8101908080359060200190929190505050617d50565b604051808273ffffffffffffffffffffffffffffffffffffffff1673ffffffffffffffffffffffffffffffffffffffff16815260200191505060405180910390f35b34801561292c57600080fd5b506129596004803603602081101561294357600080fd5b8101908080359060200190929190505050617d83565b005b34801561296757600080fd5b506129946004803603602081101561297e57600080fd5b810190808035906020019092919050505061806b565b005b3480156129a257600080fd5b506129f9600480360360608110156129b957600080fd5b8101908080359060200190929190803573ffffffffffffffffffffffffffffffffffffffff1690602001909291908035906020019092919050505061833b565b005b348015612a0757600080fd5b50612af760048036036080811015612a1e57600080fd5b8101908080359060200190640100000000811115612a3b57600080fd5b820183602082011115612a4d57600080fd5b80359060200191846001830284011164010000000083111715612a6f57600080fd5b91908080601f016020809104026020016040519081016040528093929190818152602001838380828437600081840152601f19601f820116905080830192505050505050509192919290803573ffffffffffffffffffffffffffffffffffffffff169060200190929190803590602001909291908035151590602001909291905050506184fb565b005b348015612b0557600080fd5b50612b0e6187be565b6040518082815260200191505060405180910390f35b348015612b3057600080fd5b50612b9360048036036040811015612b4757600080fd5b81019080803573ffffffffffffffffffffffffffffffffffffffff169060200190929190803573ffffffffffffffffffffffffffffffffffffffff1690602001909291905050506187c4565b604051808215151515815260200191505060405180910390f35b348015612bb957600080fd5b50612be660048036036020811015612bd057600080fd5b8101908080359060200190929190505050618858565b005b348015612bf457600080fd5b50612c2160048036036020811015612c0b57600080fd5b81019080803590602001909291905050506189a0565b6040518082815260200191505060405180910390f35b348015612c4357600080fd5b50612c7060048036036020811015612c5a57600080fd5b81019080803590602001909291905050506189b8565b6040518082815260200191505060405180910390f35b348015612c9257600080fd5b50612cbf60048036036020811015612ca957600080fd5b81019080803590602001909291905050506189d0565b6040518082815260200191505060405180910390f35b348015612ce157600080fd5b50612cea6189e8565b604051808273ffffffffffffffffffffffffffffffffffffffff1673ffffffffffffffffffffffffffffffffffffffff16815260200191505060405180910390f35b6000806000837bffffffffffffffffffffffffffffffffffffffffffffffffffffffff19167bffffffffffffffffffffffffffffffffffffffffffffffffffffffff1916815260200190815260200160002060009054906101000a900460ff169050919050565b601b60009054906101000a900473ffffffffffffffffffffffffffffffffffffffff1673ffffffffffffffffffffffffffffffffffffffff163373ffffffffffffffffffffffffffffffffffffffff16141515612e58576040517f08c379a000000000000000000000000000000000000000000000000000000000815260040180806020018281038252600a8152602001807f4f6e6c792061646d696e0000000000000000000000000000000000000000000081525060200191505060405180910390fd5b80601460006101000a81548173ffffffffffffffffffffffffffffffffffffffff021916908373ffffffffffffffffffffffffffffffffffffffff16021790555050565b606060098054600181600116156101000203166002900480601f016020809104026020016040519081016040528092919081815260200182805460018160011615610100020316600290048015612f345780601f10612f0957610100808354040283529160200191612f34565b820191906000526020600020905b815481529060010190602001808311612f1757829003601f168201915b5050505050905090565b6000612f4982618a0e565b1515612fe3576040517f08c379a000000000000000000000000000000000000000000000000000000000815260040180806020018281038252602c8152602001807f4552433732313a20617070726f76656420717565727920666f72206e6f6e657881526020017f697374656e7420746f6b656e000000000000000000000000000000000000000081525060400191505060405180910390fd5b6002600083815260200190815260200160002060009054906101000a900473ffffffffffffffffffffffffffffffffffffffff169050919050565b600061302982614f4e565b90508073ffffffffffffffffffffffffffffffffffffffff168373ffffffffffffffffffffffffffffffffffffffff16141515156130f5576040517f08c379a00000000000000000000000000000000000000000000000000000000081526004018080602001828103825260218152602001807f4552433732313a20617070726f76616c20746f2063757272656e74206f776e6581526020017f720000000000000000000000000000000000000000000000000000000000000081525060400191505060405180910390fd5b8073ffffffffffffffffffffffffffffffffffffffff163373ffffffffffffffffffffffffffffffffffffffff161480613135575061313481336187c4565b5b15156131cf576040517f08c379a00000000000000000000000000000000000000000000000000000000081526004018080602001828103825260388152602001807f4552433732313a20617070726f76652063616c6c6572206973206e6f74206f7781526020017f6e6572206e6f7220617070726f76656420666f7220616c6c000000000000000081525060400191505060405180910390fd5b826002600084815260200190815260200160002060006101000a81548173ffffffffffffffffffffffffffffffffffffffff021916908373ffffffffffffffffffffffffffffffffffffffff160217905550818373ffffffffffffffffffffffffffffffffffffffff168273ffffffffffffffffffffffffffffffffffffffff167f8c5be1e5ebec7d5bd14f71427d1e84f3dd0314c0f7b2291e5b200ac8c7c3b92560405160405180910390a4505050565b81600c6000828152602001908152602001600020600e0160039054906101000a900460ff1615151561331b576040517f08c379a00000000000000000000000000000000000000000000000000000000081526004018080602001828103825260108152602001807f4f6e6c7920696620756e6c6f636b65640000000000000000000000000000000081525060200191505060405180910390fd5b82601c60003373ffffffffffffffffffffffffffffffffffffffff1673ffffffffffffffffffffffffffffffffffffffff16815260200190815260200160002060009054906101000a900460ff16806133d25750600d600082815260200190815260200160002060009054906101000a900473ffffffffffffffffffffffffffffffffffffffff1673ffffffffffffffffffffffffffffffffffffffff163373ffffffffffffffffffffffffffffffffffffffff16145b1515613446576040517f08c379a000000000000000000000000000000000000000000000000000000000815260040180806020018281038252601a8152602001807f4f6e6c7920617274697374206f722077686974656c697374656400000000000081525060200191505060405180910390fd5b82600c6000868152602001908152602001600020600001908051906020019061347092919061a0af565b5050505050565b6000601d60003373ffffffffffffffffffffffffffffffffffffffff1673ffffffffffffffffffffffffffffffffffffffff16815260200190815260200160002060009054906101000a900460ff161515613560576040517f08c379a000000000000000000000000000000000000000000000000000000000815260040180806020018281038252602b8152602001807f4d757374206d696e742066726f6d2077686974656c6973746564206d696e746581526020017f7220636f6e74726163742e00000000000000000000000000000000000000000081525060400191505060405180910390fd5b600c6000848152602001908152602001600020600901546135a16001600c600087815260200190815260200160002060080154618a8090919063ffffffff16565b11151515613617576040517f08c379a000000000000000000000000000000000000000000000000000000000815260040180806020018281038252601f8152602001807f4d757374206e6f7420657863656564206d617820696e766f636174696f6e730081525060200191505060405180910390fd5b600c6000848152602001908152602001600020600e0160029054906101000a900460ff16806136a45750600d600084815260200190815260200160002060009054906101000a900473ffffffffffffffffffffffffffffffffffffffff1673ffffffffffffffffffffffffffffffffffffffff168273ffffffffffffffffffffffffffffffffffffffff16145b1515613718576040517f08c379a00000000000000000000000000000000000000000000000000000000081526004018080602001828103825260208152602001807f50726f6a656374206d75737420657869737420616e642062652061637469766581525060200191505060405180910390fd5b600c6000848152602001908152602001600020600e0160049054906101000a900460ff1615806137a65750600d600084815260200190815260200160002060009054906101000a900473ffffffffffffffffffffffffffffffffffffffff1673ffffffffffffffffffffffffffffffffffffffff168273ffffffffffffffffffffffffffffffffffffffff16145b151561381a576040517f08c379a00000000000000000000000000000000000000000000000000000000081526004018080602001828103825260158152602001807f50757263686173657320617265207061757365642e000000000000000000000081525060200191505060405180910390fd5b60006138268585618b0a565b9050809150509392505050565b601b60009054906101000a900473ffffffffffffffffffffffffffffffffffffffff1673ffffffffffffffffffffffffffffffffffffffff163373ffffffffffffffffffffffffffffffffffffffff161415156138f8576040517f08c379a000000000000000000000000000000000000000000000000000000000815260040180806020018281038252600a8152602001807f4f6e6c792061646d696e0000000000000000000000000000000000000000000081525060200191505060405180910390fd5b6001601c60008373ffffffffffffffffffffffffffffffffffffffff1673ffffffffffffffffffffffffffffffffffffffff16815260200190815260200160002060006101000a81548160ff02191690831515021790555050565b6000600780549050905090565b60176020528060005260406000206000915090505481565b600e6020528060005260406000206000915090508054600181600116156101000203166002900480601f016020809104026020016040519081016040528092919081815260200182805460018160011615610100020316600290048015613a205780601f106139f557610100808354040283529160200191613a20565b820191906000526020600020905b815481529060010190602001808311613a0357829003601f168201915b505050505081565b613a323382618dae565b1515613acc576040517f08c379a00000000000000000000000000000000000000000000000000000000081526004018080602001828103825260318152602001807f4552433732313a207472616e736665722063616c6c6572206973206e6f74206f81526020017f776e6572206e6f7220617070726f76656400000000000000000000000000000081525060400191505060405180910390fd5b613ad7838383618ee7565b505050565b81600c6000828152602001908152602001600020600e0160039054906101000a900460ff16151515613b76576040517f08c379a00000000000000000000000000000000000000000000000000000000081526004018080602001828103825260108152602001807f4f6e6c7920696620756e6c6f636b65640000000000000000000000000000000081525060200191505060405180910390fd5b82601c60003373ffffffffffffffffffffffffffffffffffffffff1673ffffffffffffffffffffffffffffffffffffffff16815260200190815260200160002060009054906101000a900460ff1680613c2d5750600d600082815260200190815260200160002060009054906101000a900473ffffffffffffffffffffffffffffffffffffffff1673ffffffffffffffffffffffffffffffffffffffff163373ffffffffffffffffffffffffffffffffffffffff16145b1515613ca1576040517f08c379a000000000000000000000000000000000000000000000000000000000815260040180806020018281038252601a8152602001807f4f6e6c7920617274697374206f722077686974656c697374656400000000000081525060200191505060405180910390fd5b82600c60008681526020019081526020016000206004019080519060200190613ccb92919061a0af565b5050505050565b60166020528060005260406000206000915090508054600181600116156101000203166002900480601f016020809104026020016040519081016040528092919081815260200182805460018160011615610100020316600290048015613d7a5780601f10613d4f57610100808354040283529160200191613d7a565b820191906000526020600020905b815481529060010190602001808311613d5d57829003601f168201915b505050505081565b6017600082815260200190815260200160002054600d600082815260200190815260200160002060009054906101000a900473ffffffffffffffffffffffffffffffffffffffff1673ffffffffffffffffffffffffffffffffffffffff163373ffffffffffffffffffffffffffffffffffffffff16141515613e6c576040517f08c379a000000000000000000000000000000000000000000000000000000000815260040180806020018281038252600b8152602001807f4f6e6c792061727469737400000000000000000000000000000000000000000081525060200191505060405180910390fd5b60166000601760008581526020019081526020016000205481526020019081526020016000206000613e9e919061a12f565b5050565b601b60009054906101000a900473ffffffffffffffffffffffffffffffffffffffff1673ffffffffffffffffffffffffffffffffffffffff163373ffffffffffffffffffffffffffffffffffffffff16141515613f67576040517f08c379a000000000000000000000000000000000000000000000000000000000815260040180806020018281038252600a8152602001807f4f6e6c792061646d696e0000000000000000000000000000000000000000000081525060200191505060405180910390fd5b6000601c60008373ffffffffffffffffffffffffffffffffffffffff1673ffffffffffffffffffffffffffffffffffffffff16815260200190815260200160002060006101000a81548160ff02191690831515021790555050565b6060806000600c60008581526020019081526020016000206006018054600181600116156101000203166002900480601f0160208091040260200160405190810160405280929190818152602001828054600181600116156101000203166002900480156140715780601f1061404657610100808354040283529160200191614071565b820191906000526020600020905b81548152906001019060200180831161405457829003601f168201915b50505050509250600c60008581526020019081526020016000206007018054600181600116156101000203166002900480601f0160208091040260200160405190810160405280929190818152602001828054600181600116156101000203166002900480156141225780601f106140f757610100808354040283529160200191614122565b820191906000526020600020905b81548152906001019060200180831161410557829003601f168201915b50505050509150600c6000858152602001908152602001600020600e0160019054906101000a900460ff1690509193909250565b6000614161836153e9565b821015156141fd576040517f08c379a000000000000000000000000000000000000000000000000000000000815260040180806020018281038252602b8152602001807f455243373231456e756d657261626c653a206f776e657220696e646578206f7581526020017f74206f6620626f756e647300000000000000000000000000000000000000000081525060400191505060405180910390fd5b600560008473ffffffffffffffffffffffffffffffffffffffff1673ffffffffffffffffffffffffffffffffffffffff1681526020019081526020016000208281548110151561424957fe5b9060005260206000200154905092915050565b600b60009054906101000a900473ffffffffffffffffffffffffffffffffffffffff1681565b81600d600082815260200190815260200160002060009054906101000a900473ffffffffffffffffffffffffffffffffffffffff1673ffffffffffffffffffffffffffffffffffffffff163373ffffffffffffffffffffffffffffffffffffffff16141515614359576040517f08c379a000000000000000000000000000000000000000000000000000000000815260040180806020018281038252600b8152602001807f4f6e6c792061727469737400000000000000000000000000000000000000000081525060200191505060405180910390fd5b81600c6000858152602001908152602001600020600301908051906020019061438392919061a0af565b50505050565b601460009054906101000a900473ffffffffffffffffffffffffffffffffffffffff1681565b601c6020528060005260406000206000915054906101000a900460ff1681565b80600c6000828152602001908152602001600020600e0160039054906101000a900460ff16151515614469576040517f08c379a00000000000000000000000000000000000000000000000000000000081526004018080602001828103825260108152602001807f4f6e6c7920696620756e6c6f636b65640000000000000000000000000000000081525060200191505060405180910390fd5b81601c60003373ffffffffffffffffffffffffffffffffffffffff1673ffffffffffffffffffffffffffffffffffffffff16815260200190815260200160002060009054906101000a900460ff16806145205750600d600082815260200190815260200160002060009054906101000a900473ffffffffffffffffffffffffffffffffffffffff1673ffffffffffffffffffffffffffffffffffffffff163373ffffffffffffffffffffffffffffffffffffffff16145b1515614594576040517f08c379a000000000000000000000000000000000000000000000000000000000815260040180806020018281038252601a8152602001807f4f6e6c7920617274697374206f722077686974656c697374656400000000000081525060200191505060405180910390fd5b6000600c600085815260200190815260200160002060080154141515614648576040517f08c379a00000000000000000000000000000000000000000000000000000000081526004018080602001828103825260278152602001807f43616e206e6f7420737769746368206166746572206120746f6b656e2069732081526020017f6d696e7465642e0000000000000000000000000000000000000000000000000081525060400191505060405180910390fd5b600c600084815260200190815260200160002060050160009054906101000a900460ff16156146a5576000600c6000858152602001908152602001600020600e0160006101000a81548160ff0219169083151502179055506146d5565b6001600c6000858152602001908152602001600020600e0160006101000a81548160ff0219169083151502179055505b600c600084815260200190815260200160002060050160009054906101000a900460ff1615600c600085815260200190815260200160002060050160006101000a81548160ff021916908315150217905550505050565b81600d600082815260200190815260200160002060009054906101000a900473ffffffffffffffffffffffffffffffffffffffff1673ffffffffffffffffffffffffffffffffffffffff163373ffffffffffffffffffffffffffffffffffffffff16141515614803576040517f08c379a000000000000000000000000000000000000000000000000000000000815260040180806020018281038252600b8152602001807f4f6e6c792061727469737400000000000000000000000000000000000000000081525060200191505060405180910390fd5b81600c6000858152602001908152602001600020600601908051906020019061482d92919061a0af565b50505050565b81600c6000828152602001908152602001600020600e0160039054906101000a900460ff161515156148cd576040517f08c379a00000000000000000000000000000000000000000000000000000000081526004018080602001828103825260108152602001807f4f6e6c7920696620756e6c6f636b65640000000000000000000000000000000081525060200191505060405180910390fd5b82601c60003373ffffffffffffffffffffffffffffffffffffffff1673ffffffffffffffffffffffffffffffffffffffff16815260200190815260200160002060009054906101000a900460ff16806149845750600d600082815260200190815260200160002060009054906101000a900473ffffffffffffffffffffffffffffffffffffffff1673ffffffffffffffffffffffffffffffffffffffff163373ffffffffffffffffffffffffffffffffffffffff16145b15156149f8576040517f08c379a000000000000000000000000000000000000000000000000000000000815260040180806020018281038252601a8152602001807f4f6e6c7920617274697374206f722077686974656c697374656400000000000081525060200191505060405180910390fd5b82600c6000868152602001908152602001600020600d019080519060200190614a2292919061a0af565b5050505050565b614a45838383602060405190810160405280600081525061712e565b505050565b600f6020528060005260406000206000915054906101000a900473ffffffffffffffffffffffffffffffffffffffff1681565b60606000806060600080600c6000888152602001908152602001600020600a018054600181600116156101000203166002900480601f016020809104026020016040519081016040528092919081815260200182805460018160011615610100020316600290048015614b315780601f10614b0657610100808354040283529160200191614b31565b820191906000526020600020905b815481529060010190602001808311614b1457829003601f168201915b50505050509550600c6000888152602001908152602001600020600c01549450600c6000888152602001908152602001600020600e0160009054906101000a900460ff169350600c6000888152602001908152602001600020600d018054600181600116156101000203166002900480601f016020809104026020016040519081016040528092919081815260200182805460018160011615610100020316600290048015614c215780601f10614bf657610100808354040283529160200191614c21565b820191906000526020600020905b815481529060010190602001808311614c0457829003601f168201915b50505050509250600c6000888152602001908152602001600020600e0160039054906101000a900460ff169150600c6000888152602001908152602001600020600e0160049054906101000a900460ff16905091939550919395565b60155481565b6000614c8d613953565b82101515614d29576040517f08c379a000000000000000000000000000000000000000000000000000000000815260040180806020018281038252602c8152602001807f455243373231456e756d657261626c653a20676c6f62616c20696e646578206f81526020017f7574206f6620626f756e6473000000000000000000000000000000000000000081525060400191505060405180910390fd5b600782815481101515614d3857fe5b90600052602060002001549050919050565b80600d600082815260200190815260200160002060009054906101000a900473ffffffffffffffffffffffffffffffffffffffff1673ffffffffffffffffffffffffffffffffffffffff163373ffffffffffffffffffffffffffffffffffffffff16141515614e21576040517f08c379a000000000000000000000000000000000000000000000000000000000815260040180806020018281038252600b8152602001807f4f6e6c792061727469737400000000000000000000000000000000000000000081525060200191505060405180910390fd5b600c600083815260200190815260200160002060050160009054906101000a900460ff16151515614ee0576040517f08c379a00000000000000000000000000000000000000000000000000000000081526004018080602001828103825260318152602001807f63616e206f6e6c7920736574207374617469632049504653206861736820666f81526020017f72207374617469632070726f6a6563747300000000000000000000000000000081525060400191505060405180910390fd5b600c6000838152602001908152602001600020600e0160019054906101000a900460ff1615600c6000848152602001908152602001600020600e0160016101000a81548160ff0219169083151502179055505050565b60196020528060005260406000206000915090505481565b6000806001600084815260200190815260200160002060009054906101000a900473ffffffffffffffffffffffffffffffffffffffff169050600073ffffffffffffffffffffffffffffffffffffffff168173ffffffffffffffffffffffffffffffffffffffff1614151515615052576040517f08c379a00000000000000000000000000000000000000000000000000000000081526004018080602001828103825260298152602001807f4552433732313a206f776e657220717565727920666f72206e6f6e657869737481526020017f656e7420746f6b656e000000000000000000000000000000000000000000000081525060400191505060405180910390fd5b80915050919050565b81601c60003373ffffffffffffffffffffffffffffffffffffffff1673ffffffffffffffffffffffffffffffffffffffff16815260200190815260200160002060009054906101000a900460ff16806151125750600d600082815260200190815260200160002060009054906101000a900473ffffffffffffffffffffffffffffffffffffffff1673ffffffffffffffffffffffffffffffffffffffff163373ffffffffffffffffffffffffffffffffffffffff16145b1515615186576040517f08c379a000000000000000000000000000000000000000000000000000000000815260040180806020018281038252601a8152602001807f4f6e6c7920617274697374206f722077686974656c697374656400000000000081525060200191505060405180910390fd5b81600d600085815260200190815260200160002060006101000a81548173ffffffffffffffffffffffffffffffffffffffff021916908373ffffffffffffffffffffffffffffffffffffffff160217905550505050565b81600d600082815260200190815260200160002060009054906101000a900473ffffffffffffffffffffffffffffffffffffffff1673ffffffffffffffffffffffffffffffffffffffff163373ffffffffffffffffffffffffffffffffffffffff161415156152b4576040517f08c379a000000000000000000000000000000000000000000000000000000000815260040180806020018281038252600b8152602001807f4f6e6c792061727469737400000000000000000000000000000000000000000081525060200191505060405180910390fd5b81600c600085815260200190815260200160002060070190805190602001906152de92919061a0af565b50505050565b601c60003373ffffffffffffffffffffffffffffffffffffffff1673ffffffffffffffffffffffffffffffffffffffff16815260200190815260200160002060009054906101000a900460ff1615156153a5576040517f08c379a00000000000000000000000000000000000000000000000000000000081526004018080602001828103825260108152602001807f4f6e6c792077686974656c69737465640000000000000000000000000000000081525060200191505060405180910390fd5b80600b60006101000a81548173ffffffffffffffffffffffffffffffffffffffff021916908373ffffffffffffffffffffffffffffffffffffffff16021790555050565b60008073ffffffffffffffffffffffffffffffffffffffff168273ffffffffffffffffffffffffffffffffffffffff16141515156154b5576040517f08c379a000000000000000000000000000000000000000000000000000000000815260040180806020018281038252602a8152602001807f4552433732313a2062616c616e636520717565727920666f7220746865207a6581526020017f726f20616464726573730000000000000000000000000000000000000000000081525060400191505060405180910390fd5b6154fc600360008473ffffffffffffffffffffffffffffffffffffffff1673ffffffffffffffffffffffffffffffffffffffff168152602001908152602001600020618f0b565b9050919050565b81600d600082815260200190815260200160002060009054906101000a900473ffffffffffffffffffffffffffffffffffffffff1673ffffffffffffffffffffffffffffffffffffffff163373ffffffffffffffffffffffffffffffffffffffff161415156155da576040517f08c379a000000000000000000000000000000000000000000000000000000000815260040180806020018281038252600b8152602001807f4f6e6c792061727469737400000000000000000000000000000000000000000081525060200191505060405180910390fd5b600c6000848152602001908152602001600020600e0160039054906101000a900460ff16158061561f5750600c60008481526020019081526020016000206009015482105b1515615693576040517f08c379a00000000000000000000000000000000000000000000000000000000081526004018080602001828103825260108152602001807f4f6e6c7920696620756e6c6f636b65640000000000000000000000000000000081525060200191505060405180910390fd5b600c60008481526020019081526020016000206008015482111515615746576040517f08c379a000000000000000000000000000000000000000000000000000000000815260040180806020018281038252603d8152602001807f596f75206d75737420736574206d617820696e766f636174696f6e732067726581526020017f61746572207468616e2063757272656e7420696e766f636174696f6e7300000081525060400191505060405180910390fd5b620f424082111515156157c1576040517f08c379a00000000000000000000000000000000000000000000000000000000081526004018080602001828103825260178152602001807f43616e6e6f742065786365656420312c3030302c30303000000000000000000081525060200191505060405180910390fd5b81600c600085815260200190815260200160002060090181905550505050565b60606157ec82618f19565b80548060200260200160405190810160405280929190818152602001828054801561583657602002820191906000526020600020905b815481526020019060010190808311615822575b50505050509050919050565b601b60009054906101000a900473ffffffffffffffffffffffffffffffffffffffff1673ffffffffffffffffffffffffffffffffffffffff163373ffffffffffffffffffffffffffffffffffffffff16141515615907576040517f08c379a000000000000000000000000000000000000000000000000000000000815260040180806020018281038252600a8152602001807f4f6e6c792061646d696e0000000000000000000000000000000000000000000081525060200191505060405180910390fd5b6000601d60008373ffffffffffffffffffffffffffffffffffffffff1673ffffffffffffffffffffffffffffffffffffffff16815260200190815260200160002060006101000a81548160ff02191690831515021790555050565b601c60003373ffffffffffffffffffffffffffffffffffffffff1673ffffffffffffffffffffffffffffffffffffffff16815260200190815260200160002060009054906101000a900460ff161515615a23576040517f08c379a00000000000000000000000000000000000000000000000000000000081526004018080602001828103825260108152602001807f4f6e6c792077686974656c69737465640000000000000000000000000000000081525060200191505060405180910390fd5b80600c6000828152602001908152602001600020600e0160039054906101000a900460ff16151515615abd576040517f08c379a00000000000000000000000000000000000000000000000000000000081526004018080602001828103825260108152602001807f4f6e6c7920696620756e6c6f636b65640000000000000000000000000000000081525060200191505060405180910390fd5b6001600c6000848152602001908152602001600020600e0160036101000a81548160ff0219169083151502179055505050565b601b60009054906101000a900473ffffffffffffffffffffffffffffffffffffffff1673ffffffffffffffffffffffffffffffffffffffff163373ffffffffffffffffffffffffffffffffffffffff16141515615bb5576040517f08c379a000000000000000000000000000000000000000000000000000000000815260040180806020018281038252600a8152602001807f4f6e6c792061646d696e0000000000000000000000000000000000000000000081525060200191505060405180910390fd5b6001601d60008373ffffffffffffffffffffffffffffffffffffffff1673ffffffffffffffffffffffffffffffffffffffff16815260200190815260200160002060006101000a81548160ff02191690831515021790555050565b600080600080600080600060606000600d60008b815260200190815260200160002060009054906101000a900473ffffffffffffffffffffffffffffffffffffffff169850601060008b8152602001908152602001600020549750600c60008b8152602001908152602001600020600801549650600c60008b8152602001908152602001600020600901549550600c60008b8152602001908152602001600020600e0160029054906101000a900460ff169450601160008b815260200190815260200160002060009054906101000a900473ffffffffffffffffffffffffffffffffffffffff169350601260008b8152602001908152602001600020549250600e60008b81526020019081526020016000208054600181600116156101000203166002900480601f016020809104026020016040519081016040528092919081815260200182805460018160011615610100020316600290048015615db65780601f10615d8b57610100808354040283529160200191615db6565b820191906000526020600020905b815481529060010190602001808311615d9957829003601f168201915b50505050509150600f60008b815260200190815260200160002060009054906101000a900473ffffffffffffffffffffffffffffffffffffffff1690509193959799909294969850565b6060600c6000848152602001908152602001600020600b0160008381526020019081526020016000208054600181600116156101000203166002900480601f016020809104026020016040519081016040528092919081815260200182805460018160011615610100020316600290048015615ebd5780601f10615e9257610100808354040283529160200191615ebd565b820191906000526020600020905b815481529060010190602001808311615ea057829003601f168201915b5050505050905092915050565b60608060608060606000600c60008881526020019081526020016000206000018054600181600116156101000203166002900480601f016020809104026020016040519081016040528092919081815260200182805460018160011615610100020316600290048015615f7e5780601f10615f5357610100808354040283529160200191615f7e565b820191906000526020600020905b815481529060010190602001808311615f6157829003601f168201915b50505050509550600c60008881526020019081526020016000206001018054600181600116156101000203166002900480601f01602080910402602001604051908101604052809291908181526020018280546001816001161561010002031660029004801561602f5780601f106160045761010080835404028352916020019161602f565b820191906000526020600020905b81548152906001019060200180831161601257829003601f168201915b50505050509450600c60008881526020019081526020016000206002018054600181600116156101000203166002900480601f0160208091040260200160405190810160405280929190818152602001828054600181600116156101000203166002900480156160e05780601f106160b5576101008083540402835291602001916160e0565b820191906000526020600020905b8154815290600101906020018083116160c357829003601f168201915b50505050509350600c60008881526020019081526020016000206003018054600181600116156101000203166002900480601f0160208091040260200160405190810160405280929190818152602001828054600181600116156101000203166002900480156161915780601f1061616657610100808354040283529160200191616191565b820191906000526020600020905b81548152906001019060200180831161617457829003601f168201915b50505050509250600c60008881526020019081526020016000206004018054600181600116156101000203166002900480601f0160208091040260200160405190810160405280929190818152602001828054600181600116156101000203166002900480156162425780601f1061621757610100808354040283529160200191616242565b820191906000526020600020905b81548152906001019060200180831161622557829003601f168201915b50505050509150600c600088815260200190815260200160002060050160009054906101000a900460ff16905091939550919395565b6017600083815260200190815260200160002054600d600082815260200190815260200160002060009054906101000a900473ffffffffffffffffffffffffffffffffffffffff1673ffffffffffffffffffffffffffffffffffffffff163373ffffffffffffffffffffffffffffffffffffffff16141515616362576040517f08c379a000000000000000000000000000000000000000000000000000000000815260040180806020018281038252600b8152602001807f4f6e6c792061727469737400000000000000000000000000000000000000000081525060200191505060405180910390fd5b8160166000858152602001908152602001600020908051906020019061638992919061a0af565b50505050565b6060600a8054600181600116156101000203166002900480601f0160208091040260200160405190810160405280929190818152602001828054600181600116156101000203166002900480156164275780601f106163fc57610100808354040283529160200191616427565b820191906000526020600020905b81548152906001019060200180831161640a57829003601f168201915b5050505050905090565b81600d600082815260200190815260200160002060009054906101000a900473ffffffffffffffffffffffffffffffffffffffff1673ffffffffffffffffffffffffffffffffffffffff163373ffffffffffffffffffffffffffffffffffffffff16141515616508576040517f08c379a000000000000000000000000000000000000000000000000000000000815260040180806020018281038252600b8152602001807f4f6e6c792061727469737400000000000000000000000000000000000000000081525060200191505060405180910390fd5b816010600085815260200190815260200160002081905550505050565b80600d600082815260200190815260200160002060009054906101000a900473ffffffffffffffffffffffffffffffffffffffff1673ffffffffffffffffffffffffffffffffffffffff163373ffffffffffffffffffffffffffffffffffffffff161415156165fc576040517f08c379a000000000000000000000000000000000000000000000000000000000815260040180806020018281038252600b8152602001807f4f6e6c792061727469737400000000000000000000000000000000000000000081525060200191505060405180910390fd5b600c6000838152602001908152602001600020600e0160049054906101000a900460ff1615600c6000848152602001908152602001600020600e0160046101000a81548160ff0219169083151502179055505050565b3373ffffffffffffffffffffffffffffffffffffffff168273ffffffffffffffffffffffffffffffffffffffff16141515156166f6576040517f08c379a00000000000000000000000000000000000000000000000000000000081526004018080602001828103825260198152602001807f4552433732313a20617070726f766520746f2063616c6c65720000000000000081525060200191505060405180910390fd5b80600460003373ffffffffffffffffffffffffffffffffffffffff1673ffffffffffffffffffffffffffffffffffffffff16815260200190815260200160002060008473ffffffffffffffffffffffffffffffffffffffff1673ffffffffffffffffffffffffffffffffffffffff16815260200190815260200160002060006101000a81548160ff0219169083151502179055508173ffffffffffffffffffffffffffffffffffffffff163373ffffffffffffffffffffffffffffffffffffffff167f17307eab39ab6107e8899845ad3d59bd9653f200f220920489ca2b5937696c3183604051808215151515815260200191505060405180910390a35050565b81600d600082815260200190815260200160002060009054906101000a900473ffffffffffffffffffffffffffffffffffffffff1673ffffffffffffffffffffffffffffffffffffffff163373ffffffffffffffffffffffffffffffffffffffff161415156168ce576040517f08c379a000000000000000000000000000000000000000000000000000000000815260040180806020018281038252600b8152602001807f4f6e6c792061727469737400000000000000000000000000000000000000000081525060200191505060405180910390fd5b81600c600085815260200190815260200160002060020190805190602001906168f892919061a0af565b50505050565b600d6020528060005260406000206000915054906101000a900473ffffffffffffffffffffffffffffffffffffffff1681565b600080600080600d60006017600088815260200190815260200160002054815260200190815260200160002060009054906101000a900473ffffffffffffffffffffffffffffffffffffffff169350601160006017600088815260200190815260200160002054815260200190815260200160002060009054906101000a900473ffffffffffffffffffffffffffffffffffffffff169250601260006017600088815260200190815260200160002054815260200190815260200160002054915060136000601760008881526020019081526020016000205481526020019081526020016000205490509193509193565b81600c6000828152602001908152602001600020600e0160039054906101000a900460ff16151515616abc576040517f08c379a00000000000000000000000000000000000000000000000000000000081526004018080602001828103825260108152602001807f4f6e6c7920696620756e6c6f636b65640000000000000000000000000000000081525060200191505060405180910390fd5b82601c60003373ffffffffffffffffffffffffffffffffffffffff1673ffffffffffffffffffffffffffffffffffffffff16815260200190815260200160002060009054906101000a900460ff1680616b735750600d600082815260200190815260200160002060009054906101000a900473ffffffffffffffffffffffffffffffffffffffff1673ffffffffffffffffffffffffffffffffffffffff163373ffffffffffffffffffffffffffffffffffffffff16145b1515616be7576040517f08c379a000000000000000000000000000000000000000000000000000000000815260040180806020018281038252601a8152602001807f4f6e6c7920617274697374206f722077686974656c697374656400000000000081525060200191505060405180910390fd5b82600c6000868152602001908152602001600020600b016000600c6000888152602001908152602001600020600c015481526020019081526020016000209080519060200190616c3892919061a0af565b50616c636001600c6000878152602001908152602001600020600c0154618a8090919063ffffffff16565b600c6000868152602001908152602001600020600c018190555050505050565b601d6020528060005260406000206000915054906101000a900460ff1681565b82600c6000828152602001908152602001600020600e0160039054906101000a900460ff16151515616d3d576040517f08c379a00000000000000000000000000000000000000000000000000000000081526004018080602001828103825260108152602001807f4f6e6c7920696620756e6c6f636b65640000000000000000000000000000000081525060200191505060405180910390fd5b83601c60003373ffffffffffffffffffffffffffffffffffffffff1673ffffffffffffffffffffffffffffffffffffffff16815260200190815260200160002060009054906101000a900460ff1680616df45750600d600082815260200190815260200160002060009054906101000a900473ffffffffffffffffffffffffffffffffffffffff1673ffffffffffffffffffffffffffffffffffffffff163373ffffffffffffffffffffffffffffffffffffffff16145b1515616e68576040517f08c379a000000000000000000000000000000000000000000000000000000000815260040180806020018281038252601a8152602001807f4f6e6c7920617274697374206f722077686974656c697374656400000000000081525060200191505060405180910390fd5b600c6000868152602001908152602001600020600c015484101515616ef5576040517f08c379a00000000000000000000000000000000000000000000000000000000081526004018080602001828103825260158152602001807f7363726970744964206f7574206f662072616e6765000000000000000000000081525060200191505060405180910390fd5b82600c6000878152602001908152602001600020600b0160008681526020019081526020016000209080519060200190616f3092919061a0af565b505050505050565b81600c6000828152602001908152602001600020600e0160039054906101000a900460ff16151515616fd2576040517f08c379a00000000000000000000000000000000000000000000000000000000081526004018080602001828103825260108152602001807f4f6e6c7920696620756e6c6f636b65640000000000000000000000000000000081525060200191505060405180910390fd5b82601c60003373ffffffffffffffffffffffffffffffffffffffff1673ffffffffffffffffffffffffffffffffffffffff16815260200190815260200160002060009054906101000a900460ff16806170895750600d600082815260200190815260200160002060009054906101000a900473ffffffffffffffffffffffffffffffffffffffff1673ffffffffffffffffffffffffffffffffffffffff163373ffffffffffffffffffffffffffffffffffffffff16145b15156170fd576040517f08c379a000000000000000000000000000000000000000000000000000000000815260040180806020018281038252601a8152602001807f4f6e6c7920617274697374206f722077686974656c697374656400000000000081525060200191505060405180910390fd5b82600c6000868152602001908152602001600020600101908051906020019061712792919061a0af565b5050505050565b617139848484613a28565b61714584848484618f61565b15156171df576040517f08c379a00000000000000000000000000000000000000000000000000000000081526004018080602001828103825260328152602001807f4552433732313a207472616e7366657220746f206e6f6e20455243373231526581526020017f63656976657220696d706c656d656e746572000000000000000000000000000081525060400191505060405180910390fd5b50505050565b60606018600083815260200190815260200160002080548060200260200160405190810160405280929190818152602001828054801561724457602002820191906000526020600020905b815481526020019060010190808311617230575b50505050509050919050565b81600d600082815260200190815260200160002060009054906101000a900473ffffffffffffffffffffffffffffffffffffffff1673ffffffffffffffffffffffffffffffffffffffff163373ffffffffffffffffffffffffffffffffffffffff16141515617327576040517f08c379a000000000000000000000000000000000000000000000000000000000815260040180806020018281038252600b8152602001807f4f6e6c792061727469737400000000000000000000000000000000000000000081525060200191505060405180910390fd5b606482111515156173a0576040517f08c379a000000000000000000000000000000000000000000000000000000000815260040180806020018281038252600b8152602001807f4d6178206f66203130302500000000000000000000000000000000000000000081525060200191505060405180910390fd5b816013600085815260200190815260200160002081905550505050565b81600c6000828152602001908152602001600020600e0160039054906101000a900460ff16151515617457576040517f08c379a00000000000000000000000000000000000000000000000000000000081526004018080602001828103825260108152602001807f4f6e6c7920696620756e6c6f636b65640000000000000000000000000000000081525060200191505060405180910390fd5b82601c60003373ffffffffffffffffffffffffffffffffffffffff1673ffffffffffffffffffffffffffffffffffffffff16815260200190815260200160002060009054906101000a900460ff168061750e5750600d600082815260200190815260200160002060009054906101000a900473ffffffffffffffffffffffffffffffffffffffff1673ffffffffffffffffffffffffffffffffffffffff163373ffffffffffffffffffffffffffffffffffffffff16145b1515617582576040517f08c379a000000000000000000000000000000000000000000000000000000000815260040180806020018281038252601a8152602001807f4f6e6c7920617274697374206f722077686974656c697374656400000000000081525060200191505060405180910390fd5b82600c6000868152602001908152602001600020600a0190805190602001906175ac92919061a0af565b5050505050565b6060816175bf81618a0e565b1515617633576040517f08c379a00000000000000000000000000000000000000000000000000000000081526004018080602001828103825260178152602001807f546f6b656e20494420646f6573206e6f7420657869737400000000000000000081525060200191505060405180910390fd5b60006016600085815260200190815260200160002080546001816001161561010002031660029004905011156177e0576177d9600c6000601760008781526020019081526020016000205481526020019081526020016000206007018054600181600116156101000203166002900480601f0160208091040260200160405190810160405280929190818152602001828054600181600116156101000203166002900480156177235780601f106176f857610100808354040283529160200191617723565b820191906000526020600020905b81548152906001019060200180831161770657829003601f168201915b5050505050601660008681526020019081526020016000208054600181600116156101000203166002900480601f0160208091040260200160405190810160405280929190818152602001828054600181600116156101000203166002900480156177cf5780601f106177a4576101008083540402835291602001916177cf565b820191906000526020600020905b8154815290600101906020018083116177b257829003601f168201915b5050505050619184565b9150617ac5565b600c60006017600086815260200190815260200160002054815260200190815260200160002060050160009054906101000a900460ff161580156178575750600c600060176000868152602001908152602001600020548152602001908152602001600020600e0160019054906101000a900460ff165b156179ef576179e8600c6000601760008781526020019081526020016000205481526020019081526020016000206007018054600181600116156101000203166002900480601f01602080910402602001604051908101604052809291908181526020018280546001816001161561010002031660029004801561791c5780601f106178f15761010080835404028352916020019161791c565b820191906000526020600020905b8154815290600101906020018083116178ff57829003601f168201915b5050505050600c600060176000888152602001908152602001600020548152602001908152602001600020600d018054600181600116156101000203166002900480601f0160208091040260200160405190810160405280929190818152602001828054600181600116156101000203166002900480156179de5780601f106179b3576101008083540402835291602001916179de565b820191906000526020600020905b8154815290600101906020018083116179c157829003601f168201915b5050505050619184565b9150617ac5565b617ac2600c6000601760008781526020019081526020016000205481526020019081526020016000206006018054600181600116156101000203166002900480601f016020809104026020016040519081016040528092919081815260200182805460018160011615610100020316600290048015617aaf5780601f10617a8457610100808354040283529160200191617aaf565b820191906000526020600020905b815481529060010190602001808311617a9257829003601f168201915b5050505050617abd856191cb565b619184565b91505b50919050565b60126020528060005260406000206000915090505481565b601c60003373ffffffffffffffffffffffffffffffffffffffff1673ffffffffffffffffffffffffffffffffffffffff16815260200190815260200160002060009054906101000a900460ff161515617ba4576040517f08c379a00000000000000000000000000000000000000000000000000000000081526004018080602001828103825260108152602001807f4f6e6c792077686974656c69737465640000000000000000000000000000000081525060200191505060405180910390fd5b600c6000828152602001908152602001600020600e0160029054906101000a900460ff1615600c6000838152602001908152602001600020600e0160026101000a81548160ff02191690831515021790555050565b82600d600082815260200190815260200160002060009054906101000a900473ffffffffffffffffffffffffffffffffffffffff1673ffffffffffffffffffffffffffffffffffffffff163373ffffffffffffffffffffffffffffffffffffffff16141515617cd0576040517f08c379a000000000000000000000000000000000000000000000000000000000815260040180806020018281038252600b8152602001807f4f6e6c792061727469737400000000000000000000000000000000000000000081525060200191505060405180910390fd5b82600e60008681526020019081526020016000209080519060200190617cf792919061a0af565b5081600f600086815260200190815260200160002060006101000a81548173ffffffffffffffffffffffffffffffffffffffff021916908373ffffffffffffffffffffffffffffffffffffffff16021790555050505050565b60116020528060005260406000206000915054906101000a900473ffffffffffffffffffffffffffffffffffffffff1681565b80600c6000828152602001908152602001600020600e0160039054906101000a900460ff16151515617e1d576040517f08c379a00000000000000000000000000000000000000000000000000000000081526004018080602001828103825260108152602001807f4f6e6c7920696620756e6c6f636b65640000000000000000000000000000000081525060200191505060405180910390fd5b81601c60003373ffffffffffffffffffffffffffffffffffffffff1673ffffffffffffffffffffffffffffffffffffffff16815260200190815260200160002060009054906101000a900460ff1680617ed45750600d600082815260200190815260200160002060009054906101000a900473ffffffffffffffffffffffffffffffffffffffff1673ffffffffffffffffffffffffffffffffffffffff163373ffffffffffffffffffffffffffffffffffffffff16145b1515617f48576040517f08c379a000000000000000000000000000000000000000000000000000000000815260040180806020018281038252601a8152602001807f4f6e6c7920617274697374206f722077686974656c697374656400000000000081525060200191505060405180910390fd5b6000600c6000858152602001908152602001600020600c0154111515617fd6576040517f08c379a000000000000000000000000000000000000000000000000000000000815260040180806020018281038252601e8152602001807f746865726520617265206e6f207363726970747320746f2072656d6f7665000081525060200191505060405180910390fd5b600c6000848152602001908152602001600020600b0160006001600c6000878152602001908152602001600020600c01540381526020019081526020016000206000618022919061a12f565b61804c6001600c6000868152602001908152602001600020600c015461932490919063ffffffff16565b600c6000858152602001908152602001600020600c0181905550505050565b80600c6000828152602001908152602001600020600e0160039054906101000a900460ff16151515618105576040517f08c379a00000000000000000000000000000000000000000000000000000000081526004018080602001828103825260108152602001807f4f6e6c7920696620756e6c6f636b65640000000000000000000000000000000081525060200191505060405180910390fd5b81601c60003373ffffffffffffffffffffffffffffffffffffffff1673ffffffffffffffffffffffffffffffffffffffff16815260200190815260200160002060009054906101000a900460ff16806181bc5750600d600082815260200190815260200160002060009054906101000a900473ffffffffffffffffffffffffffffffffffffffff1673ffffffffffffffffffffffffffffffffffffffff163373ffffffffffffffffffffffffffffffffffffffff16145b1515618230576040517f08c379a000000000000000000000000000000000000000000000000000000000815260040180806020018281038252601a8152602001807f4f6e6c7920617274697374206f722077686974656c697374656400000000000081525060200191505060405180910390fd5b6000600c6000858152602001908152602001600020600801541415156182e4576040517f08c379a00000000000000000000000000000000000000000000000000000000081526004018080602001828103825260268152602001807f43616e6e6f74206d6f64696679206166746572206120746f6b656e206973206d81526020017f696e7465642e000000000000000000000000000000000000000000000000000081525060400191505060405180910390fd5b600c6000848152602001908152602001600020600e0160009054906101000a900460ff1615600c6000858152602001908152602001600020600e0160006101000a81548160ff021916908315150217905550505050565b82600d600082815260200190815260200160002060009054906101000a900473ffffffffffffffffffffffffffffffffffffffff1673ffffffffffffffffffffffffffffffffffffffff163373ffffffffffffffffffffffffffffffffffffffff16141515618412576040517f08c379a000000000000000000000000000000000000000000000000000000000815260040180806020018281038252600b8152602001807f4f6e6c792061727469737400000000000000000000000000000000000000000081525060200191505060405180910390fd5b6064821115151561848b576040517f08c379a000000000000000000000000000000000000000000000000000000000815260040180806020018281038252600b8152602001807f4d6178206f66203130302500000000000000000000000000000000000000000081525060200191505060405180910390fd5b826011600086815260200190815260200160002060006101000a81548173ffffffffffffffffffffffffffffffffffffffff021916908373ffffffffffffffffffffffffffffffffffffffff16021790555081601260008681526020019081526020016000208190555050505050565b601c60003373ffffffffffffffffffffffffffffffffffffffff1673ffffffffffffffffffffffffffffffffffffffff16815260200190815260200160002060009054906101000a900460ff1615156185bc576040517f08c379a00000000000000000000000000000000000000000000000000000000081526004018080602001828103825260108152602001807f4f6e6c792077686974656c69737465640000000000000000000000000000000081525060200191505060405180910390fd5b6000601e54905083600d600083815260200190815260200160002060006101000a81548173ffffffffffffffffffffffffffffffffffffffff021916908373ffffffffffffffffffffffffffffffffffffffff16021790555084600c6000838152602001908152602001600020600001908051906020019061863f92919061a0af565b506040805190810160405280600381526020017f4554480000000000000000000000000000000000000000000000000000000000815250600e6000838152602001908152602001600020908051906020019061869c92919061a0af565b508260106000838152602001908152602001600020819055506001600c6000838152602001908152602001600020600e0160046101000a81548160ff02191690831515021790555081600c600083815260200190815260200160002060050160006101000a81548160ff021916908315150217905550620f4240600c60008381526020019081526020016000206009018190555081151561876b576000600c6000838152602001908152602001600020600e0160006101000a81548160ff02191690831515021790555061879b565b6001600c6000838152602001908152602001600020600e0160006101000a81548160ff0219169083151502179055505b6187b16001601e54618a8090919063ffffffff16565b601e819055505050505050565b601e5481565b6000600460008473ffffffffffffffffffffffffffffffffffffffff1673ffffffffffffffffffffffffffffffffffffffff16815260200190815260200160002060008373ffffffffffffffffffffffffffffffffffffffff1673ffffffffffffffffffffffffffffffffffffffff16815260200190815260200160002060009054906101000a900460ff16905092915050565b601b60009054906101000a900473ffffffffffffffffffffffffffffffffffffffff1673ffffffffffffffffffffffffffffffffffffffff163373ffffffffffffffffffffffffffffffffffffffff1614151561891d576040517f08c379a000000000000000000000000000000000000000000000000000000000815260040180806020018281038252600a8152602001807f4f6e6c792061646d696e0000000000000000000000000000000000000000000081525060200191505060405180910390fd5b60198111151515618996576040517f08c379a000000000000000000000000000000000000000000000000000000000815260040180806020018281038252600a8152602001807f4d6178206f66203235250000000000000000000000000000000000000000000081525060200191505060405180910390fd5b8060158190555050565b60136020528060005260406000206000915090505481565b601a6020528060005260406000206000915090505481565b60106020528060005260406000206000915090505481565b601b60009054906101000a900473ffffffffffffffffffffffffffffffffffffffff1681565b6000806001600084815260200190815260200160002060009054906101000a900473ffffffffffffffffffffffffffffffffffffffff169050600073ffffffffffffffffffffffffffffffffffffffff168173ffffffffffffffffffffffffffffffffffffffff161415915050919050565b6000808284019050838110151515618b00576040517f08c379a000000000000000000000000000000000000000000000000000000000815260040180806020018281038252601b8152602001807f536166654d6174683a206164646974696f6e206f766572666c6f77000000000081525060200191505060405180910390fd5b8091505092915050565b600080600c600084815260200190815260200160002060080154620f42408402019050618b576001600c600086815260200190815260200160002060080154618a8090919063ffffffff16565b600c6000858152602001908152602001600020600801819055506000600c60008581526020019081526020016000206008015443600143034033600b60009054906101000a900473ffffffffffffffffffffffffffffffffffffffff1673ffffffffffffffffffffffffffffffffffffffff1663990c8f796040518163ffffffff167c010000000000000000000000000000000000000000000000000000000002815260040160206040518083038186803b158015618c1557600080fd5b505afa158015618c29573d6000803e3d6000fd5b505050506040513d6020811015618c3f57600080fd5b8101908080519060200190929190505050604051602001808681526020018581526020018481526020018373ffffffffffffffffffffffffffffffffffffffff1673ffffffffffffffffffffffffffffffffffffffff166c010000000000000000000000000281526014018281526020019550505050505060405160208183030381529060405280519060200120905080601960008481526020019081526020016000208190555081601a600083815260200190815260200160002081905550618d0985836193af565b8360176000848152602001908152602001600020819055506018600085815260200190815260200160002082908060018154018082558091505090600182039060005260206000200160009091929091909150555083828673ffffffffffffffffffffffffffffffffffffffff167f4c209b5fc8ad50758f13e2e1088ba56a560dff690a1c6fef26394f4c03821c4f60405160405180910390a4819250505092915050565b6000618db982618a0e565b1515618e53576040517f08c379a000000000000000000000000000000000000000000000000000000000815260040180806020018281038252602c8152602001807f4552433732313a206f70657261746f7220717565727920666f72206e6f6e657881526020017f697374656e7420746f6b656e000000000000000000000000000000000000000081525060400191505060405180910390fd5b6000618e5e83614f4e565b90508073ffffffffffffffffffffffffffffffffffffffff168473ffffffffffffffffffffffffffffffffffffffff161480618ecd57508373ffffffffffffffffffffffffffffffffffffffff16618eb584612f3e565b73ffffffffffffffffffffffffffffffffffffffff16145b80618ede5750618edd81856187c4565b5b91505092915050565b618ef28383836193d0565b618efc83826196b5565b618f068282619859565b505050565b600081600001549050919050565b6000600560008373ffffffffffffffffffffffffffffffffffffffff1673ffffffffffffffffffffffffffffffffffffffff1681526020019081526020016000209050919050565b6000618f828473ffffffffffffffffffffffffffffffffffffffff16619920565b1515618f91576001905061917c565b60008473ffffffffffffffffffffffffffffffffffffffff1663150b7a02338887876040518563ffffffff167c0100000000000000000000000000000000000000000000000000000000028152600401808573ffffffffffffffffffffffffffffffffffffffff1673ffffffffffffffffffffffffffffffffffffffff1681526020018473ffffffffffffffffffffffffffffffffffffffff1673ffffffffffffffffffffffffffffffffffffffff16815260200183815260200180602001828103825283818151815260200191508051906020019080838360005b8381101561908857808201518184015260208101905061906d565b50505050905090810190601f1680156190b55780820380516001836020036101000a031916815260200191505b5095505050505050602060405180830381600087803b1580156190d757600080fd5b505af11580156190eb573d6000803e3d6000fd5b505050506040513d602081101561910157600080fd5b8101908080519060200190929190505050905063150b7a027c0100000000000000000000000000000000000000000000000000000000027bffffffffffffffffffffffffffffffffffffffffffffffffffffffff1916817bffffffffffffffffffffffffffffffffffffffffffffffffffffffff1916149150505b949350505050565b60606191c38383602060405190810160405280600081525060206040519081016040528060008152506020604051908101604052806000815250619933565b905092915050565b60606000821415619213576040805190810160405280600181526020017f3000000000000000000000000000000000000000000000000000000000000000815250905061931f565b600082905060005b600082141515619241578080600101915050600a8281151561923957fe5b04915061921b565b6060816040519080825280601f01601f1916602001820160405280156192765781602001600182028038833980820191505090505b50905060006001830390505b60008614151561931757600a8681151561929857fe5b066030017f0100000000000000000000000000000000000000000000000000000000000000028282806001900393508151811015156192d357fe5b9060200101907effffffffffffffffffffffffffffffffffffffffffffffffffffffffffffff1916908160001a905350600a8681151561930f57fe5b049550619282565b819450505050505b919050565b600082821115151561939e576040517f08c379a000000000000000000000000000000000000000000000000000000000815260040180806020018281038252601e8152602001807f536166654d6174683a207375627472616374696f6e206f766572666c6f77000081525060200191505060405180910390fd5b600082840390508091505092915050565b6193b98282619d4e565b6193c38282619859565b6193cc81619f6a565b5050565b8273ffffffffffffffffffffffffffffffffffffffff166193f082614f4e565b73ffffffffffffffffffffffffffffffffffffffff161415156194a1576040517f08c379a00000000000000000000000000000000000000000000000000000000081526004018080602001828103825260298152602001807f4552433732313a207472616e73666572206f6620746f6b656e2074686174206981526020017f73206e6f74206f776e000000000000000000000000000000000000000000000081525060400191505060405180910390fd5b600073ffffffffffffffffffffffffffffffffffffffff168273ffffffffffffffffffffffffffffffffffffffff161415151561956c576040517f08c379a00000000000000000000000000000000000000000000000000000000081526004018080602001828103825260248152602001807f4552433732313a207472616e7366657220746f20746865207a65726f2061646481526020017f726573730000000000000000000000000000000000000000000000000000000081525060400191505060405180910390fd5b61957581619fb6565b6195bc600360008573ffffffffffffffffffffffffffffffffffffffff1673ffffffffffffffffffffffffffffffffffffffff16815260200190815260200160002061a076565b619603600360008473ffffffffffffffffffffffffffffffffffffffff1673ffffffffffffffffffffffffffffffffffffffff16815260200190815260200160002061a099565b816001600083815260200190815260200160002060006101000a81548173ffffffffffffffffffffffffffffffffffffffff021916908373ffffffffffffffffffffffffffffffffffffffff160217905550808273ffffffffffffffffffffffffffffffffffffffff168473ffffffffffffffffffffffffffffffffffffffff167fddf252ad1be2c89b69c2b068fc378daa952ba7f163c4a11628f55a4df523b3ef60405160405180910390a4505050565b600061970d6001600560008673ffffffffffffffffffffffffffffffffffffffff1673ffffffffffffffffffffffffffffffffffffffff1681526020019081526020016000208054905061932490919063ffffffff16565b90506000600660008481526020019081526020016000205490508181141515619800576000600560008673ffffffffffffffffffffffffffffffffffffffff1673ffffffffffffffffffffffffffffffffffffffff1681526020019081526020016000208381548110151561977e57fe5b9060005260206000200154905080600560008773ffffffffffffffffffffffffffffffffffffffff1673ffffffffffffffffffffffffffffffffffffffff168152602001908152602001600020838154811015156197d857fe5b9060005260206000200181905550816006600083815260200190815260200160002081905550505b600560008573ffffffffffffffffffffffffffffffffffffffff1673ffffffffffffffffffffffffffffffffffffffff168152602001908152602001600020805480919060019003619852919061a177565b5050505050565b600560008373ffffffffffffffffffffffffffffffffffffffff1673ffffffffffffffffffffffffffffffffffffffff168152602001908152602001600020805490506006600083815260200190815260200160002081905550600560008373ffffffffffffffffffffffffffffffffffffffff1673ffffffffffffffffffffffffffffffffffffffff1681526020019081526020016000208190806001815401808255809150509060018203906000526020600020016000909192909190915055505050565b600080823b905060008111915050919050565b6060808690506060869050606086905060608690506060869050606081518351855187518951010101016040519080825280601f01601f19166020018201604052801561998f5781602001600182028038833980820191505090505b509050606081905060008090506000809050600090505b8851811015619a595788818151811015156199bd57fe5b9060200101517f010000000000000000000000000000000000000000000000000000000000000090047f0100000000000000000000000000000000000000000000000000000000000000028383806001019450815181101515619a1c57fe5b9060200101907effffffffffffffffffffffffffffffffffffffffffffffffffffffffffffff1916908160001a90535080806001019150506199a6565b600090505b8751811015619b11578781815181101515619a7557fe5b9060200101517f010000000000000000000000000000000000000000000000000000000000000090047f0100000000000000000000000000000000000000000000000000000000000000028383806001019450815181101515619ad457fe5b9060200101907effffffffffffffffffffffffffffffffffffffffffffffffffffffffffffff1916908160001a9053508080600101915050619a5e565b600090505b8651811015619bc9578681815181101515619b2d57fe5b9060200101517f010000000000000000000000000000000000000000000000000000000000000090047f0100000000000000000000000000000000000000000000000000000000000000028383806001019450815181101515619b8c57fe5b9060200101907effffffffffffffffffffffffffffffffffffffffffffffffffffffffffffff1916908160001a9053508080600101915050619b16565b600090505b8551811015619c81578581815181101515619be557fe5b9060200101517f010000000000000000000000000000000000000000000000000000000000000090047f0100000000000000000000000000000000000000000000000000000000000000028383806001019450815181101515619c4457fe5b9060200101907effffffffffffffffffffffffffffffffffffffffffffffffffffffffffffff1916908160001a9053508080600101915050619bce565b600090505b8451811015619d39578481815181101515619c9d57fe5b9060200101517f010000000000000000000000000000000000000000000000000000000000000090047f0100000000000000000000000000000000000000000000000000000000000000028383806001019450815181101515619cfc57fe5b9060200101907effffffffffffffffffffffffffffffffffffffffffffffffffffffffffffff1916908160001a9053508080600101915050619c86565b82995050505050505050505095945050505050565b600073ffffffffffffffffffffffffffffffffffffffff168273ffffffffffffffffffffffffffffffffffffffff1614151515619df3576040517f08c379a00000000000000000000000000000000000000000000000000000000081526004018080602001828103825260208152602001807f4552433732313a206d696e7420746f20746865207a65726f206164647265737381525060200191505060405180910390fd5b619dfc81618a0e565b151515619e71576040517f08c379a000000000000000000000000000000000000000000000000000000000815260040180806020018281038252601c8152602001807f4552433732313a20746f6b656e20616c7265616479206d696e7465640000000081525060200191505060405180910390fd5b816001600083815260200190815260200160002060006101000a81548173ffffffffffffffffffffffffffffffffffffffff021916908373ffffffffffffffffffffffffffffffffffffffff160217905550619f0a600360008473ffffffffffffffffffffffffffffffffffffffff1673ffffffffffffffffffffffffffffffffffffffff16815260200190815260200160002061a099565b808273ffffffffffffffffffffffffffffffffffffffff16600073ffffffffffffffffffffffffffffffffffffffff167fddf252ad1be2c89b69c2b068fc378daa952ba7f163c4a11628f55a4df523b3ef60405160405180910390a45050565b6007805490506008600083815260200190815260200160002081905550600781908060018154018082558091505090600182039060005260206000200160009091929091909150555050565b600073ffffffffffffffffffffffffffffffffffffffff166002600083815260200190815260200160002060009054906101000a900473ffffffffffffffffffffffffffffffffffffffff1673ffffffffffffffffffffffffffffffffffffffff1614151561a0735760006002600083815260200190815260200160002060006101000a81548173ffffffffffffffffffffffffffffffffffffffff021916908373ffffffffffffffffffffffffffffffffffffffff1602179055505b50565b61a08e6001826000015461932490919063ffffffff16565b816000018190555050565b6001816000016000828254019250508190555050565b828054600181600116156101000203166002900490600052602060002090601f016020900481019282601f1061a0f057805160ff191683800117855561a11e565b8280016001018555821561a11e579182015b8281111561a11d57825182559160200191906001019061a102565b5b50905061a12b919061a1a3565b5090565b50805460018160011615610100020316600290046000825580601f1061a155575061a174565b601f01602090049060005260206000209081019061a173919061a1a3565b5b50565b81548183558181111561a19e5781836000526020600020918201910161a19d919061a1a3565b5b505050565b61a1c591905b8082111561a1c157600081600090555060010161a1a9565b5090565b9056fea165627a7a723058203386376225be3196ddbda9ad09c066edca14ac99fdac9fdfd9ecaa7ab64faea10029",
    "source": "/**\r\n *Submitted for verification at Etherscan.io on 2020-12-12\r\n*/\r\n\r\n// File contracts/libs/IERC165.sol\r\n\r\n// File: openzeppelin-solidity/contracts/introspection/IERC165.sol\r\npragma solidity ^0.5.0;\r\n\r\n/**\r\n * @dev Interface of the ERC165 standard, as defined in the\r\n * [EIP](https://eips.ethereum.org/EIPS/eip-165).\r\n *\r\n * Implementers can declare support of contract interfaces, which can then be\r\n * queried by others (`ERC165Checker`).\r\n *\r\n * For an implementation, see `ERC165`.\r\n */\r\ninterface IERC165 {\r\n    /**\r\n     * @dev Returns true if this contract implements the interface defined by\r\n     * `interfaceId`. See the corresponding\r\n     * [EIP section](https://eips.ethereum.org/EIPS/eip-165#how-interfaces-are-identified)\r\n     * to learn more about how these ids are created.\r\n     *\r\n     * This function call must use less than 30 000 gas.\r\n     */\r\n    function supportsInterface(bytes4 interfaceId) external view returns (bool);\r\n}\r\n\r\n\r\n// File contracts/libs/ERC165.sol\r\n\r\n// File: openzeppelin-solidity/contracts/introspection/ERC165.sol\r\n\r\npragma solidity ^0.5.0;\r\n\r\n\r\n\r\n/**\r\n * @dev Implementation of the `IERC165` interface.\r\n *\r\n * Contracts may inherit from this and call `_registerInterface` to declare\r\n * their support of an interface.\r\n */\r\ncontract ERC165 is IERC165 {\r\n    /*\r\n     * bytes4(keccak256('supportsInterface(bytes4)')) == 0x01ffc9a7\r\n     */\r\n    bytes4 private constant _INTERFACE_ID_ERC165 = 0x01ffc9a7;\r\n\r\n    /**\r\n     * @dev Mapping of interface ids to whether or not it's supported.\r\n     */\r\n    mapping(bytes4 => bool) private _supportedInterfaces;\r\n\r\n    constructor () internal {\r\n        // Derived contracts need only register support for their own interfaces,\r\n        // we register support for ERC165 itself here\r\n        _registerInterface(_INTERFACE_ID_ERC165);\r\n    }\r\n\r\n    /**\r\n     * @dev See `IERC165.supportsInterface`.\r\n     *\r\n     * Time complexity O(1), guaranteed to always use less than 30 000 gas.\r\n     */\r\n    function supportsInterface(bytes4 interfaceId) external view returns (bool) {\r\n        return _supportedInterfaces[interfaceId];\r\n    }\r\n\r\n    /**\r\n     * @dev Registers the contract as an implementer of the interface defined by\r\n     * `interfaceId`. Support of the actual ERC165 interface is automatic and\r\n     * registering its interface id is not required.\r\n     *\r\n     * See `IERC165.supportsInterface`.\r\n     *\r\n     * Requirements:\r\n     *\r\n     * - `interfaceId` cannot be the ERC165 invalid interface (`0xffffffff`).\r\n     */\r\n    function _registerInterface(bytes4 interfaceId) internal {\r\n        require(interfaceId != 0xffffffff, \"ERC165: invalid interface id\");\r\n        _supportedInterfaces[interfaceId] = true;\r\n    }\r\n}\r\n\r\n\r\n// File contracts/libs/IERC721.sol\r\n\r\n// File: openzeppelin-solidity/contracts/token/ERC721/IERC721.sol\r\n\r\npragma solidity ^0.5.0;\r\n\r\n\r\n\r\n/**\r\n * @dev Required interface of an ERC721 compliant contract.\r\n */\r\ncontract IERC721 is IERC165 {\r\n    event Transfer(address indexed from, address indexed to, uint256 indexed tokenId);\r\n    event Approval(address indexed owner, address indexed approved, uint256 indexed tokenId);\r\n    event ApprovalForAll(address indexed owner, address indexed operator, bool approved);\r\n\r\n    /**\r\n     * @dev Returns the number of NFTs in `owner`'s account.\r\n     */\r\n    function balanceOf(address owner) public view returns (uint256 balance);\r\n\r\n    /**\r\n     * @dev Returns the owner of the NFT specified by `tokenId`.\r\n     */\r\n    function ownerOf(uint256 tokenId) public view returns (address owner);\r\n\r\n    /**\r\n     * @dev Transfers a specific NFT (`tokenId`) from one account (`from`) to\r\n     * another (`to`).\r\n     *\r\n     *\r\n     *\r\n     * Requirements:\r\n     * - `from`, `to` cannot be zero.\r\n     * - `tokenId` must be owned by `from`.\r\n     * - If the caller is not `from`, it must be have been allowed to move this\r\n     * NFT by either `approve` or `setApproveForAll`.\r\n     */\r\n    function safeTransferFrom(address from, address to, uint256 tokenId) public;\r\n    /**\r\n     * @dev Transfers a specific NFT (`tokenId`) from one account (`from`) to\r\n     * another (`to`).\r\n     *\r\n     * Requirements:\r\n     * - If the caller is not `from`, it must be approved to move this NFT by\r\n     * either `approve` or `setApproveForAll`.\r\n     */\r\n    function transferFrom(address from, address to, uint256 tokenId) public;\r\n    function approve(address to, uint256 tokenId) public;\r\n    function getApproved(uint256 tokenId) public view returns (address operator);\r\n\r\n    function setApprovalForAll(address operator, bool _approved) public;\r\n    function isApprovedForAll(address owner, address operator) public view returns (bool);\r\n\r\n\r\n    function safeTransferFrom(address from, address to, uint256 tokenId, bytes memory data) public;\r\n}\r\n\r\n\r\n// File contracts/libs/SafeMath.sol\r\n\r\n// File: openzeppelin-solidity/contracts/math/SafeMath.sol\r\n\r\npragma solidity ^0.5.0;\r\n\r\n/**\r\n * @dev Wrappers over Solidity's arithmetic operations with added overflow\r\n * checks.\r\n *\r\n * Arithmetic operations in Solidity wrap on overflow. This can easily result\r\n * in bugs, because programmers usually assume that an overflow raises an\r\n * error, which is the standard behavior in high level programming languages.\r\n * `SafeMath` restores this intuition by reverting the transaction when an\r\n * operation overflows.\r\n *\r\n * Using this library instead of the unchecked operations eliminates an entire\r\n * class of bugs, so it's recommended to use it always.\r\n */\r\nlibrary SafeMath {\r\n    /**\r\n     * @dev Returns the addition of two unsigned integers, reverting on\r\n     * overflow.\r\n     *\r\n     * Counterpart to Solidity's `+` operator.\r\n     *\r\n     * Requirements:\r\n     * - Addition cannot overflow.\r\n     */\r\n    function add(uint256 a, uint256 b) internal pure returns (uint256) {\r\n        uint256 c = a + b;\r\n        require(c >= a, \"SafeMath: addition overflow\");\r\n\r\n        return c;\r\n    }\r\n\r\n    /**\r\n     * @dev Returns the subtraction of two unsigned integers, reverting on\r\n     * overflow (when the result is negative).\r\n     *\r\n     * Counterpart to Solidity's `-` operator.\r\n     *\r\n     * Requirements:\r\n     * - Subtraction cannot overflow.\r\n     */\r\n    function sub(uint256 a, uint256 b) internal pure returns (uint256) {\r\n        require(b <= a, \"SafeMath: subtraction overflow\");\r\n        uint256 c = a - b;\r\n\r\n        return c;\r\n    }\r\n\r\n    /**\r\n     * @dev Returns the multiplication of two unsigned integers, reverting on\r\n     * overflow.\r\n     *\r\n     * Counterpart to Solidity's `*` operator.\r\n     *\r\n     * Requirements:\r\n     * - Multiplication cannot overflow.\r\n     */\r\n    function mul(uint256 a, uint256 b) internal pure returns (uint256) {\r\n        // Gas optimization: this is cheaper than requiring 'a' not being zero, but the\r\n        // benefit is lost if 'b' is also tested.\r\n        // See: https://github.com/OpenZeppelin/openzeppelin-solidity/pull/522\r\n        if (a == 0) {\r\n            return 0;\r\n        }\r\n\r\n        uint256 c = a * b;\r\n        require(c / a == b, \"SafeMath: multiplication overflow\");\r\n\r\n        return c;\r\n    }\r\n\r\n    /**\r\n     * @dev Returns the integer division of two unsigned integers. Reverts on\r\n     * division by zero. The result is rounded towards zero.\r\n     *\r\n     * Counterpart to Solidity's `/` operator. Note: this function uses a\r\n     * `revert` opcode (which leaves remaining gas untouched) while Solidity\r\n     * uses an invalid opcode to revert (consuming all remaining gas).\r\n     *\r\n     * Requirements:\r\n     * - The divisor cannot be zero.\r\n     */\r\n    function div(uint256 a, uint256 b) internal pure returns (uint256) {\r\n        // Solidity only automatically asserts when dividing by 0\r\n        require(b > 0, \"SafeMath: division by zero\");\r\n        uint256 c = a / b;\r\n        // assert(a == b * c + a % b); // There is no case in which this doesn't hold\r\n\r\n        return c;\r\n    }\r\n}\r\n\r\n\r\n// File contracts/libs/Address.sol\r\n\r\n// File: openzeppelin-solidity/contracts/utils/Address.sol\r\n\r\npragma solidity ^0.5.0;\r\n\r\n/**\r\n * @dev Collection of functions related to the address type,\r\n */\r\nlibrary Address {\r\n    /**\r\n     * @dev Returns true if `account` is a contract.\r\n     *\r\n     * This test is non-exhaustive, and there may be false-negatives: during the\r\n     * execution of a contract's constructor, its address will be reported as\r\n     * not containing a contract.\r\n     *\r\n     * > It is unsafe to assume that an address for which this function returns\r\n     * false is an externally-owned account (EOA) and not a contract.\r\n     */\r\n    function isContract(address account) internal view returns (bool) {\r\n        // This method relies in extcodesize, which returns 0 for contracts in\r\n        // construction, since the code is only stored at the end of the\r\n        // constructor execution.\r\n\r\n        uint256 size;\r\n        // solhint-disable-next-line no-inline-assembly\r\n        assembly { size := extcodesize(account) }\r\n        return size > 0;\r\n    }\r\n}\r\n\r\n\r\n// File contracts/libs/Counters.sol\r\n\r\n// File: openzeppelin-solidity/contracts/drafts/Counters.sol\r\n\r\npragma solidity ^0.5.0;\r\n\r\n\r\n\r\n/**\r\n * @title Counters\r\n * @author Matt Condon (@shrugs)\r\n * @dev Provides counters that can only be incremented or decremented by one. This can be used e.g. to track the number\r\n * of elements in a mapping, issuing ERC721 ids, or counting request ids.\r\n *\r\n * Include with `using Counters for Counters.Counter;`\r\n * Since it is not possible to overflow a 256 bit integer with increments of one, `increment` can skip the SafeMath\r\n * overflow check, thereby saving gas. This does assume however correct usage, in that the underlying `_value` is never\r\n * directly accessed.\r\n */\r\nlibrary Counters {\r\n    using SafeMath for uint256;\r\n\r\n    struct Counter {\r\n        // This variable should never be directly accessed by users of the library: interactions must be restricted to\r\n        // the library's function. As of Solidity v0.5.2, this cannot be enforced, though there is a proposal to add\r\n        // this feature: see https://github.com/ethereum/solidity/issues/4637\r\n        uint256 _value; // default: 0\r\n    }\r\n\r\n    function current(Counter storage counter) internal view returns (uint256) {\r\n        return counter._value;\r\n    }\r\n\r\n    function increment(Counter storage counter) internal {\r\n        counter._value += 1;\r\n    }\r\n\r\n    function decrement(Counter storage counter) internal {\r\n        counter._value = counter._value.sub(1);\r\n    }\r\n}\r\n\r\n\r\n// File contracts/libs/IERC721Receiver.sol\r\n\r\n// File: openzeppelin-solidity/contracts/token/ERC721/IERC721Receiver.sol\r\n\r\npragma solidity ^0.5.0;\r\n\r\n/**\r\n * @title ERC721 token receiver interface\r\n * @dev Interface for any contract that wants to support safeTransfers\r\n * from ERC721 asset contracts.\r\n */\r\ncontract IERC721Receiver {\r\n    function onERC721Received(address operator, address from, uint256 tokenId, bytes memory data)\r\n    public returns (bytes4);\r\n}\r\n\r\n\r\n// File contracts/libs/ERC721.sol\r\n\r\n// File: openzeppelin-solidity/contracts/token/ERC721/ERC721.sol\r\n\r\npragma solidity ^0.5.0;\r\n\r\n\r\n\r\n\r\n\r\n\r\n\r\n/**\r\n * @title ERC721 Non-Fungible Token Standard basic implementation\r\n * @dev see https://eips.ethereum.org/EIPS/eip-721\r\n */\r\ncontract ERC721 is ERC165, IERC721 {\r\n    using SafeMath for uint256;\r\n    using Address for address;\r\n    using Counters for Counters.Counter;\r\n\r\n    // Equals to `bytes4(keccak256(\"onERC721Received(address,address,uint256,bytes)\"))`\r\n    // which can be also obtained as `IERC721Receiver(0).onERC721Received.selector`\r\n    bytes4 private constant _ERC721_RECEIVED = 0x150b7a02;\r\n\r\n    // Mapping from token ID to owner\r\n    mapping (uint256 => address) private _tokenOwner;\r\n\r\n    // Mapping from token ID to approved address\r\n    mapping (uint256 => address) private _tokenApprovals;\r\n\r\n    // Mapping from owner to number of owned token\r\n    mapping (address => Counters.Counter) private _ownedTokensCount;\r\n\r\n    // Mapping from owner to operator approvals\r\n    mapping (address => mapping (address => bool)) private _operatorApprovals;\r\n    \r\n    bytes4 private constant _INTERFACE_ID_ERC721 = 0x80ac58cd;\r\n\r\n    constructor () public {\r\n        // register the supported interfaces to conform to ERC721 via ERC165\r\n        _registerInterface(_INTERFACE_ID_ERC721);\r\n    }\r\n\r\n\r\n    function balanceOf(address owner) public view returns (uint256) {\r\n        require(owner != address(0), \"ERC721: balance query for the zero address\");\r\n\r\n        return _ownedTokensCount[owner].current();\r\n    }\r\n\r\n    function ownerOf(uint256 tokenId) public view returns (address) {\r\n        address owner = _tokenOwner[tokenId];\r\n        require(owner != address(0), \"ERC721: owner query for nonexistent token\");\r\n\r\n        return owner;\r\n    }\r\n\r\n    function approve(address to, uint256 tokenId) public {\r\n        address owner = ownerOf(tokenId);\r\n        require(to != owner, \"ERC721: approval to current owner\");\r\n\r\n        require(msg.sender == owner || isApprovedForAll(owner, msg.sender),\r\n            \"ERC721: approve caller is not owner nor approved for all\"\r\n        );\r\n\r\n        _tokenApprovals[tokenId] = to;\r\n        emit Approval(owner, to, tokenId);\r\n    }\r\n\r\n    function getApproved(uint256 tokenId) public view returns (address) {\r\n        require(_exists(tokenId), \"ERC721: approved query for nonexistent token\");\r\n\r\n        return _tokenApprovals[tokenId];\r\n    }\r\n\r\n    function setApprovalForAll(address to, bool approved) public {\r\n        require(to != msg.sender, \"ERC721: approve to caller\");\r\n\r\n        _operatorApprovals[msg.sender][to] = approved;\r\n        emit ApprovalForAll(msg.sender, to, approved);\r\n    }\r\n\r\n    function isApprovedForAll(address owner, address operator) public view returns (bool) {\r\n        return _operatorApprovals[owner][operator];\r\n    }\r\n\r\n    function transferFrom(address from, address to, uint256 tokenId) public {\r\n        //solhint-disable-next-line max-line-length\r\n        require(_isApprovedOrOwner(msg.sender, tokenId), \"ERC721: transfer caller is not owner nor approved\");\r\n\r\n        _transferFrom(from, to, tokenId);\r\n    }\r\n\r\n    function safeTransferFrom(address from, address to, uint256 tokenId) public {\r\n        safeTransferFrom(from, to, tokenId, \"\");\r\n    }\r\n\r\n    function safeTransferFrom(address from, address to, uint256 tokenId, bytes memory _data) public {\r\n        transferFrom(from, to, tokenId);\r\n        require(_checkOnERC721Received(from, to, tokenId, _data), \"ERC721: transfer to non ERC721Receiver implementer\");\r\n    }\r\n\r\n    function _exists(uint256 tokenId) internal view returns (bool) {\r\n        address owner = _tokenOwner[tokenId];\r\n        return owner != address(0);\r\n    }\r\n\r\n    function _isApprovedOrOwner(address spender, uint256 tokenId) internal view returns (bool) {\r\n        require(_exists(tokenId), \"ERC721: operator query for nonexistent token\");\r\n        address owner = ownerOf(tokenId);\r\n        return (spender == owner || getApproved(tokenId) == spender || isApprovedForAll(owner, spender));\r\n    }\r\n\r\n    function _mint(address to, uint256 tokenId) internal {\r\n        require(to != address(0), \"ERC721: mint to the zero address\");\r\n        require(!_exists(tokenId), \"ERC721: token already minted\");\r\n\r\n        _tokenOwner[tokenId] = to;\r\n        _ownedTokensCount[to].increment();\r\n\r\n        emit Transfer(address(0), to, tokenId);\r\n    }\r\n\r\n    function _burn(address owner, uint256 tokenId) internal {\r\n        require(ownerOf(tokenId) == owner, \"ERC721: burn of token that is not own\");\r\n\r\n        _clearApproval(tokenId);\r\n\r\n        _ownedTokensCount[owner].decrement();\r\n        _tokenOwner[tokenId] = address(0);\r\n\r\n        emit Transfer(owner, address(0), tokenId);\r\n    }\r\n\r\n    function _burn(uint256 tokenId) internal {\r\n        _burn(ownerOf(tokenId), tokenId);\r\n    }\r\n\r\n    function _transferFrom(address from, address to, uint256 tokenId) internal {\r\n        require(ownerOf(tokenId) == from, \"ERC721: transfer of token that is not own\");\r\n        require(to != address(0), \"ERC721: transfer to the zero address\");\r\n\r\n        _clearApproval(tokenId);\r\n\r\n        _ownedTokensCount[from].decrement();\r\n        _ownedTokensCount[to].increment();\r\n\r\n        _tokenOwner[tokenId] = to;\r\n\r\n        emit Transfer(from, to, tokenId);\r\n    }\r\n\r\n    function _checkOnERC721Received(address from, address to, uint256 tokenId, bytes memory _data)\r\n    internal returns (bool)\r\n    {\r\n        if (!to.isContract()) {\r\n            return true;\r\n        }\r\n\r\n        bytes4 retval = IERC721Receiver(to).onERC721Received(msg.sender, from, tokenId, _data);\r\n        return (retval == _ERC721_RECEIVED);\r\n    }\r\n\r\n    function _clearApproval(uint256 tokenId) private {\r\n        if (_tokenApprovals[tokenId] != address(0)) {\r\n            _tokenApprovals[tokenId] = address(0);\r\n        }\r\n    }\r\n}\r\n\r\n\r\n// File contracts/libs/IERC721Enumerable.sol\r\n\r\n// File: openzeppelin-solidity/contracts/token/ERC721/IERC721Enumerable.sol\r\n\r\npragma solidity ^0.5.0;\r\n\r\n\r\n\r\n/**\r\n * @title ERC-721 Non-Fungible Token Standard, optional enumeration extension\r\n * @dev See https://eips.ethereum.org/EIPS/eip-721\r\n */\r\ncontract IERC721Enumerable is IERC721 {\r\n    function totalSupply() public view returns (uint256);\r\n    function tokenOfOwnerByIndex(address owner, uint256 index) public view returns (uint256 tokenId);\r\n\r\n    function tokenByIndex(uint256 index) public view returns (uint256);\r\n}\r\n\r\n\r\n// File contracts/libs/ERC721Enumerable.sol\r\n\r\n// File: openzeppelin-solidity/contracts/token/ERC721/ERC721Enumerable.sol\r\n\r\npragma solidity ^0.5.0;\r\n\r\n\r\n\r\n\r\n\r\n\r\n\r\n/**\r\n * @title ERC-721 Non-Fungible Token with optional enumeration extension logic\r\n * @dev See https://eips.ethereum.org/EIPS/eip-721\r\n */\r\ncontract ERC721Enumerable is ERC165, ERC721, IERC721Enumerable {\r\n    // Mapping from owner to list of owned token IDs\r\n    mapping(address => uint256[]) private _ownedTokens;\r\n\r\n    // Mapping from token ID to index of the owner tokens list\r\n    mapping(uint256 => uint256) private _ownedTokensIndex;\r\n\r\n    // Array with all token ids, used for enumeration\r\n    uint256[] private _allTokens;\r\n\r\n    // Mapping from token id to position in the allTokens array\r\n    mapping(uint256 => uint256) private _allTokensIndex;\r\n\r\n    /*\r\n     *     bytes4(keccak256('totalSupply()')) == 0x18160ddd\r\n     *     bytes4(keccak256('tokenOfOwnerByIndex(address,uint256)')) == 0x2f745c59\r\n     *     bytes4(keccak256('tokenByIndex(uint256)')) == 0x4f6ccce7\r\n     *\r\n     *     => 0x18160ddd ^ 0x2f745c59 ^ 0x4f6ccce7 == 0x780e9d63\r\n     */\r\n    bytes4 private constant _INTERFACE_ID_ERC721_ENUMERABLE = 0x780e9d63;\r\n\r\n    /**\r\n     * @dev Constructor function.\r\n     */\r\n    constructor () public {\r\n        // register the supported interface to conform to ERC721Enumerable via ERC165\r\n        _registerInterface(_INTERFACE_ID_ERC721_ENUMERABLE);\r\n    }\r\n\r\n    /**\r\n     * @dev Gets the token ID at a given index of the tokens list of the requested owner.\r\n     * @param owner address owning the tokens list to be accessed\r\n     * @param index uint256 representing the index to be accessed of the requested tokens list\r\n     * @return uint256 token ID at the given index of the tokens list owned by the requested address\r\n     */\r\n    function tokenOfOwnerByIndex(address owner, uint256 index) public view returns (uint256) {\r\n        require(index < balanceOf(owner), \"ERC721Enumerable: owner index out of bounds\");\r\n        return _ownedTokens[owner][index];\r\n    }\r\n\r\n    /**\r\n     * @dev Gets the total amount of tokens stored by the contract.\r\n     * @return uint256 representing the total amount of tokens\r\n     */\r\n    function totalSupply() public view returns (uint256) {\r\n        return _allTokens.length;\r\n    }\r\n\r\n    /**\r\n     * @dev Gets the token ID at a given index of all the tokens in this contract\r\n     * Reverts if the index is greater or equal to the total number of tokens.\r\n     * @param index uint256 representing the index to be accessed of the tokens list\r\n     * @return uint256 token ID at the given index of the tokens list\r\n     */\r\n    function tokenByIndex(uint256 index) public view returns (uint256) {\r\n        require(index < totalSupply(), \"ERC721Enumerable: global index out of bounds\");\r\n        return _allTokens[index];\r\n    }\r\n\r\n    /**\r\n     * @dev Internal function to transfer ownership of a given token ID to another address.\r\n     * As opposed to transferFrom, this imposes no restrictions on msg.sender.\r\n     * @param from current owner of the token\r\n     * @param to address to receive the ownership of the given token ID\r\n     * @param tokenId uint256 ID of the token to be transferred\r\n     */\r\n    function _transferFrom(address from, address to, uint256 tokenId) internal {\r\n        super._transferFrom(from, to, tokenId);\r\n\r\n        _removeTokenFromOwnerEnumeration(from, tokenId);\r\n\r\n        _addTokenToOwnerEnumeration(to, tokenId);\r\n    }\r\n\r\n    /**\r\n     * @dev Internal function to mint a new token.\r\n     * Reverts if the given token ID already exists.\r\n     * @param to address the beneficiary that will own the minted token\r\n     * @param tokenId uint256 ID of the token to be minted\r\n     */\r\n    function _mint(address to, uint256 tokenId) internal {\r\n        super._mint(to, tokenId);\r\n\r\n        _addTokenToOwnerEnumeration(to, tokenId);\r\n\r\n        _addTokenToAllTokensEnumeration(tokenId);\r\n    }\r\n\r\n    /**\r\n     * @dev Internal function to burn a specific token.\r\n     * Reverts if the token does not exist.\r\n     * Deprecated, use _burn(uint256) instead.\r\n     * @param owner owner of the token to burn\r\n     * @param tokenId uint256 ID of the token being burned\r\n     */\r\n    function _burn(address owner, uint256 tokenId) internal {\r\n        super._burn(owner, tokenId);\r\n\r\n        _removeTokenFromOwnerEnumeration(owner, tokenId);\r\n        // Since tokenId will be deleted, we can clear its slot in _ownedTokensIndex to trigger a gas refund\r\n        _ownedTokensIndex[tokenId] = 0;\r\n\r\n        _removeTokenFromAllTokensEnumeration(tokenId);\r\n    }\r\n\r\n    /**\r\n     * @dev Gets the list of token IDs of the requested owner.\r\n     * @param owner address owning the tokens\r\n     * @return uint256[] List of token IDs owned by the requested address\r\n     */\r\n    function _tokensOfOwner(address owner) internal view returns (uint256[] storage) {\r\n        return _ownedTokens[owner];\r\n    }\r\n\r\n    /**\r\n     * @dev Private function to add a token to this extension's ownership-tracking data structures.\r\n     * @param to address representing the new owner of the given token ID\r\n     * @param tokenId uint256 ID of the token to be added to the tokens list of the given address\r\n     */\r\n    function _addTokenToOwnerEnumeration(address to, uint256 tokenId) private {\r\n        _ownedTokensIndex[tokenId] = _ownedTokens[to].length;\r\n        _ownedTokens[to].push(tokenId);\r\n    }\r\n\r\n    /**\r\n     * @dev Private function to add a token to this extension's token tracking data structures.\r\n     * @param tokenId uint256 ID of the token to be added to the tokens list\r\n     */\r\n    function _addTokenToAllTokensEnumeration(uint256 tokenId) private {\r\n        _allTokensIndex[tokenId] = _allTokens.length;\r\n        _allTokens.push(tokenId);\r\n    }\r\n\r\n    /**\r\n     * @dev Private function to remove a token from this extension's ownership-tracking data structures. Note that\r\n     * while the token is not assigned a new owner, the _ownedTokensIndex mapping is _not_ updated: this allows for\r\n     * gas optimizations e.g. when performing a transfer operation (avoiding double writes).\r\n     * This has O(1) time complexity, but alters the order of the _ownedTokens array.\r\n     * @param from address representing the previous owner of the given token ID\r\n     * @param tokenId uint256 ID of the token to be removed from the tokens list of the given address\r\n     */\r\n    function _removeTokenFromOwnerEnumeration(address from, uint256 tokenId) private {\r\n        // To prevent a gap in from's tokens array, we store the last token in the index of the token to delete, and\r\n        // then delete the last slot (swap and pop).\r\n\r\n        uint256 lastTokenIndex = _ownedTokens[from].length.sub(1);\r\n        uint256 tokenIndex = _ownedTokensIndex[tokenId];\r\n\r\n        // When the token to delete is the last token, the swap operation is unnecessary\r\n        if (tokenIndex != lastTokenIndex) {\r\n            uint256 lastTokenId = _ownedTokens[from][lastTokenIndex];\r\n\r\n            _ownedTokens[from][tokenIndex] = lastTokenId; // Move the last token to the slot of the to-delete token\r\n            _ownedTokensIndex[lastTokenId] = tokenIndex; // Update the moved token's index\r\n        }\r\n\r\n        // This also deletes the contents at the last position of the array\r\n        _ownedTokens[from].length--;\r\n\r\n        // Note that _ownedTokensIndex[tokenId] hasn't been cleared: it still points to the old slot (now occupied by\r\n        // lastTokenId, or just over the end of the array if the token was the last one).\r\n    }\r\n\r\n    /**\r\n     * @dev Private function to remove a token from this extension's token tracking data structures.\r\n     * This has O(1) time complexity, but alters the order of the _allTokens array.\r\n     * @param tokenId uint256 ID of the token to be removed from the tokens list\r\n     */\r\n    function _removeTokenFromAllTokensEnumeration(uint256 tokenId) private {\r\n        // To prevent a gap in the tokens array, we store the last token in the index of the token to delete, and\r\n        // then delete the last slot (swap and pop).\r\n\r\n        uint256 lastTokenIndex = _allTokens.length.sub(1);\r\n        uint256 tokenIndex = _allTokensIndex[tokenId];\r\n\r\n        // When the token to delete is the last token, the swap operation is unnecessary. However, since this occurs so\r\n        // rarely (when the last minted token is burnt) that we still do the swap here to avoid the gas cost of adding\r\n        // an 'if' statement (like in _removeTokenFromOwnerEnumeration)\r\n        uint256 lastTokenId = _allTokens[lastTokenIndex];\r\n\r\n        _allTokens[tokenIndex] = lastTokenId; // Move the last token to the slot of the to-delete token\r\n        _allTokensIndex[lastTokenId] = tokenIndex; // Update the moved token's index\r\n\r\n        // This also deletes the contents at the last position of the array\r\n        _allTokens.length--;\r\n        _allTokensIndex[tokenId] = 0;\r\n    }\r\n}\r\n\r\n\r\n// File contracts/libs/CustomERC721Metadata.sol\r\n\r\n// File: contracts/CustomERC721Metadata.sol\r\n\r\npragma solidity ^0.5.0;\r\n\r\n\r\n\r\n\r\n\r\n\r\n/**\r\n * ERC721 base contract without the concept of tokenUri as this is managed by the parent\r\n */\r\ncontract CustomERC721Metadata is ERC165, ERC721, ERC721Enumerable {\r\n\r\n    // Token name\r\n    string private _name;\r\n\r\n    // Token symbol\r\n    string private _symbol;\r\n\r\n    bytes4 private constant _INTERFACE_ID_ERC721_METADATA = 0x5b5e139f;\r\n\r\n    /**\r\n     * @dev Constructor function\r\n     */\r\n    constructor (string memory name, string memory symbol) public {\r\n        _name = name;\r\n        _symbol = symbol;\r\n\r\n        // register the supported interfaces to conform to ERC721 via ERC165\r\n        _registerInterface(_INTERFACE_ID_ERC721_METADATA);\r\n    }\r\n\r\n    /**\r\n     * @dev Gets the token name\r\n     * @return string representing the token name\r\n     */\r\n    function name() external view returns (string memory) {\r\n        return _name;\r\n    }\r\n\r\n    /**\r\n     * @dev Gets the token symbol\r\n     * @return string representing the token symbol\r\n     */\r\n    function symbol() external view returns (string memory) {\r\n        return _symbol;\r\n    }\r\n\r\n}\r\n\r\n\r\n// File contracts/libs/Strings.sol\r\n\r\n// File: contracts/Strings.sol\r\n\r\npragma solidity ^0.5.0;\r\n\r\n//https://github.com/oraclize/ethereum-api/blob/master/oraclizeAPI_0.5.sol\r\nlibrary Strings {\r\n\r\n    function strConcat(string memory _a, string memory _b) internal pure returns (string memory _concatenatedString) {\r\n        return strConcat(_a, _b, \"\", \"\", \"\");\r\n    }\r\n\r\n    function strConcat(string memory _a, string memory _b, string memory _c) internal pure returns (string memory _concatenatedString) {\r\n        return strConcat(_a, _b, _c, \"\", \"\");\r\n    }\r\n\r\n    function strConcat(string memory _a, string memory _b, string memory _c, string memory _d) internal pure returns (string memory _concatenatedString) {\r\n        return strConcat(_a, _b, _c, _d, \"\");\r\n    }\r\n\r\n    function strConcat(string memory _a, string memory _b, string memory _c, string memory _d, string memory _e) internal pure returns (string memory _concatenatedString) {\r\n        bytes memory _ba = bytes(_a);\r\n        bytes memory _bb = bytes(_b);\r\n        bytes memory _bc = bytes(_c);\r\n        bytes memory _bd = bytes(_d);\r\n        bytes memory _be = bytes(_e);\r\n        string memory abcde = new string(_ba.length + _bb.length + _bc.length + _bd.length + _be.length);\r\n        bytes memory babcde = bytes(abcde);\r\n        uint k = 0;\r\n        uint i = 0;\r\n        for (i = 0; i < _ba.length; i++) {\r\n            babcde[k++] = _ba[i];\r\n        }\r\n        for (i = 0; i < _bb.length; i++) {\r\n            babcde[k++] = _bb[i];\r\n        }\r\n        for (i = 0; i < _bc.length; i++) {\r\n            babcde[k++] = _bc[i];\r\n        }\r\n        for (i = 0; i < _bd.length; i++) {\r\n            babcde[k++] = _bd[i];\r\n        }\r\n        for (i = 0; i < _be.length; i++) {\r\n            babcde[k++] = _be[i];\r\n        }\r\n        return string(babcde);\r\n    }\r\n\r\n    function uint2str(uint _i) internal pure returns (string memory _uintAsString) {\r\n        if (_i == 0) {\r\n            return \"0\";\r\n        }\r\n        uint j = _i;\r\n        uint len;\r\n        while (j != 0) {\r\n            len++;\r\n            j /= 10;\r\n        }\r\n        bytes memory bstr = new bytes(len);\r\n        uint k = len - 1;\r\n        while (_i != 0) {\r\n            bstr[k--] = byte(uint8(48 + _i % 10));\r\n            _i /= 10;\r\n        }\r\n        return string(bstr);\r\n    }\r\n}\r\n\r\n\r\n// File contracts/GenArt721Core.sol\r\n\r\n// File: contracts/GenArt721Core.sol\r\n\r\n//0x1454EFCa69FA654e5A7d83CB61c1aD81790c44B7\r\n\r\n//https://oneclickdapp.com/radar-valery/\r\n\r\npragma solidity ^0.5.0;\r\n\r\n\r\n\r\n\r\ninterface Randomizer {\r\n   function returnValue() external view returns(bytes32);\r\n}\r\n\r\ncontract GenArt721Core is CustomERC721Metadata {\r\n    using SafeMath for uint256;\r\n\r\n    event Mint(\r\n        address indexed _to,\r\n        uint256 indexed _tokenId,\r\n        uint256 indexed _projectId\r\n\r\n    );\r\n\r\n    Randomizer public randomizerContract;\r\n\r\n    struct Project {\r\n        string name;\r\n        string artist;\r\n        string description;\r\n        string website;\r\n        string license;\r\n        bool dynamic;\r\n        string projectBaseURI;\r\n        string projectBaseIpfsURI;\r\n        uint256 invocations;\r\n        uint256 maxInvocations;\r\n        string scriptJSON;\r\n        mapping(uint256 => string) scripts;\r\n        uint scriptCount;\r\n        string ipfsHash;\r\n        bool useHashString;\r\n        bool useIpfs;\r\n        bool active;\r\n        bool locked;\r\n        bool paused;\r\n\r\n    }\r\n\r\n    uint256 constant ONE_MILLION = 1_000_000;\r\n    mapping(uint256 => Project) projects;\r\n\r\n    //All financial functions are stripped from struct for visibility\r\n    mapping(uint256 => address) public projectIdToArtistAddress;\r\n    mapping(uint256 => string) public projectIdToCurrencySymbol;\r\n    mapping(uint256 => address) public projectIdToCurrencyAddress;\r\n    mapping(uint256 => uint256) public projectIdToPricePerTokenInWei;\r\n    mapping(uint256 => address) public projectIdToAdditionalPayee;\r\n    mapping(uint256 => uint256) public projectIdToAdditionalPayeePercentage;\r\n    mapping(uint256 => uint256) public projectIdToSecondaryMarketRoyaltyPercentage;\r\n\r\n    address public artblocksAddress;\r\n    uint256 public artblocksPercentage = 10;\r\n\r\n    mapping(uint256 => string) public staticIpfsImageLink;\r\n    mapping(uint256 => uint256) public tokenIdToProjectId;\r\n    mapping(uint256 => uint256[]) internal projectIdToTokenIds;\r\n    mapping(uint256 => bytes32) public tokenIdToHash;\r\n    mapping(bytes32 => uint256) public hashToTokenId;\r\n\r\n    address public admin;\r\n    mapping(address => bool) public isWhitelisted;\r\n    mapping(address => bool) public isMintWhitelisted;\r\n\r\n    uint256 public nextProjectId = 3;\r\n\r\n    modifier onlyValidTokenId(uint256 _tokenId) {\r\n        require(_exists(_tokenId), \"Token ID does not exist\");\r\n        _;\r\n    }\r\n\r\n    modifier onlyUnlocked(uint256 _projectId) {\r\n        require(!projects[_projectId].locked, \"Only if unlocked\");\r\n        _;\r\n    }\r\n\r\n    modifier onlyArtist(uint256 _projectId) {\r\n        require(msg.sender == projectIdToArtistAddress[_projectId], \"Only artist\");\r\n        _;\r\n    }\r\n\r\n    modifier onlyAdmin() {\r\n        require(msg.sender == admin, \"Only admin\");\r\n        _;\r\n    }\r\n\r\n    modifier onlyWhitelisted() {\r\n        require(isWhitelisted[msg.sender], \"Only whitelisted\");\r\n        _;\r\n    }\r\n\r\n    modifier onlyArtistOrWhitelisted(uint256 _projectId) {\r\n        require(isWhitelisted[msg.sender] || msg.sender == projectIdToArtistAddress[_projectId], \"Only artist or whitelisted\");\r\n        _;\r\n    }\r\n\r\n    constructor(string memory _tokenName, string memory _tokenSymbol, address _randomizerContract) CustomERC721Metadata(_tokenName, _tokenSymbol) public {\r\n        admin = msg.sender;\r\n        isWhitelisted[msg.sender] = true;\r\n        artblocksAddress = msg.sender;\r\n        randomizerContract = Randomizer(_randomizerContract);\r\n\r\n    }\r\n\r\n    function mint(address _to, uint256 _projectId, address _by) external returns (uint256 _tokenId) {\r\n        require(isMintWhitelisted[msg.sender], \"Must mint from whitelisted minter contract.\");\r\n        require(projects[_projectId].invocations.add(1) <= projects[_projectId].maxInvocations, \"Must not exceed max invocations\");\r\n        require(projects[_projectId].active || _by == projectIdToArtistAddress[_projectId], \"Project must exist and be active\");\r\n        require(!projects[_projectId].paused || _by == projectIdToArtistAddress[_projectId], \"Purchases are paused.\");\r\n\r\n\r\n        uint256 tokenId = _mintToken(_to, _projectId);\r\n\r\n        return tokenId;\r\n    }\r\n\r\n    function _mintToken(address _to, uint256 _projectId) internal returns (uint256 _tokenId) {\r\n\r\n        uint256 tokenIdToBe = (_projectId * ONE_MILLION) + projects[_projectId].invocations;\r\n\r\n        projects[_projectId].invocations = projects[_projectId].invocations.add(1);\r\n\r\n\r\n            bytes32 hash = keccak256(abi.encodePacked(projects[_projectId].invocations, block.number, blockhash(block.number - 1), msg.sender, randomizerContract.returnValue()));\r\n            tokenIdToHash[tokenIdToBe]=hash;\r\n            hashToTokenId[hash] = tokenIdToBe;\r\n\r\n\r\n        _mint(_to, tokenIdToBe);\r\n\r\n        tokenIdToProjectId[tokenIdToBe] = _projectId;\r\n        projectIdToTokenIds[_projectId].push(tokenIdToBe);\r\n\r\n        emit Mint(_to, tokenIdToBe, _projectId);\r\n\r\n        return tokenIdToBe;\r\n    }\r\n    function updateArtblocksAddress(address _artblocksAddress) public onlyAdmin {\r\n        artblocksAddress = _artblocksAddress;\r\n    }\r\n\r\n    function updateArtblocksPercentage(uint256 _artblocksPercentage) public onlyAdmin {\r\n        require(_artblocksPercentage <= 25, \"Max of 25%\");\r\n        artblocksPercentage = _artblocksPercentage;\r\n    }\r\n\r\n    function addWhitelisted(address _address) public onlyAdmin {\r\n        isWhitelisted[_address] = true;\r\n    }\r\n\r\n    function removeWhitelisted(address _address) public onlyAdmin {\r\n        isWhitelisted[_address] = false;\r\n    }\r\n\r\n    function addMintWhitelisted(address _address) public onlyAdmin {\r\n        isMintWhitelisted[_address] = true;\r\n    }\r\n\r\n    function removeMintWhitelisted(address _address) public onlyAdmin {\r\n        isMintWhitelisted[_address] = false;\r\n    }\r\n\r\n    function updateRandomizerAddress(address _randomizerAddress) public onlyWhitelisted {\r\n      randomizerContract = Randomizer(_randomizerAddress);\r\n    }\r\n    function toggleProjectIsLocked(uint256 _projectId) public onlyWhitelisted onlyUnlocked(_projectId) {\r\n        projects[_projectId].locked = true;\r\n    }\r\n\r\n    function toggleProjectIsActive(uint256 _projectId) public onlyWhitelisted {\r\n        projects[_projectId].active = !projects[_projectId].active;\r\n    }\r\n\r\n    function updateProjectArtistAddress(uint256 _projectId, address _artistAddress) public onlyArtistOrWhitelisted(_projectId) {\r\n        projectIdToArtistAddress[_projectId] = _artistAddress;\r\n    }\r\n\r\n    function toggleProjectIsPaused(uint256 _projectId) public onlyArtist(_projectId) {\r\n        projects[_projectId].paused = !projects[_projectId].paused;\r\n    }\r\n\r\n    function addProject(string memory _projectName, address _artistAddress, uint256 _pricePerTokenInWei, bool _dynamic) public onlyWhitelisted {\r\n\r\n        uint256 projectId = nextProjectId;\r\n        projectIdToArtistAddress[projectId] = _artistAddress;\r\n        projects[projectId].name = _projectName;\r\n        projectIdToCurrencySymbol[projectId] = \"ETH\";\r\n        projectIdToPricePerTokenInWei[projectId] = _pricePerTokenInWei;\r\n        projects[projectId].paused=true;\r\n        projects[projectId].dynamic=_dynamic;\r\n        projects[projectId].maxInvocations = ONE_MILLION;\r\n        if (!_dynamic) {\r\n            projects[projectId].useHashString = false;\r\n        } else {\r\n            projects[projectId].useHashString = true;\r\n        }\r\n        nextProjectId = nextProjectId.add(1);\r\n    }\r\n\r\n    function updateProjectCurrencyInfo(uint256 _projectId, string memory _currencySymbol, address _currencyAddress) onlyArtist(_projectId) public {\r\n        projectIdToCurrencySymbol[_projectId] = _currencySymbol;\r\n        projectIdToCurrencyAddress[_projectId] = _currencyAddress;\r\n    }\r\n\r\n    function updateProjectPricePerTokenInWei(uint256 _projectId, uint256 _pricePerTokenInWei) onlyArtist(_projectId) public {\r\n        projectIdToPricePerTokenInWei[_projectId] = _pricePerTokenInWei;\r\n    }\r\n\r\n    function updateProjectName(uint256 _projectId, string memory _projectName) onlyUnlocked(_projectId) onlyArtistOrWhitelisted(_projectId) public {\r\n        projects[_projectId].name = _projectName;\r\n    }\r\n\r\n    function updateProjectArtistName(uint256 _projectId, string memory _projectArtistName) onlyUnlocked(_projectId) onlyArtistOrWhitelisted(_projectId) public {\r\n        projects[_projectId].artist = _projectArtistName;\r\n    }\r\n\r\n    function updateProjectAdditionalPayeeInfo(uint256 _projectId, address _additionalPayee, uint256 _additionalPayeePercentage) onlyArtist(_projectId) public {\r\n        require(_additionalPayeePercentage <= 100, \"Max of 100%\");\r\n        projectIdToAdditionalPayee[_projectId] = _additionalPayee;\r\n        projectIdToAdditionalPayeePercentage[_projectId] = _additionalPayeePercentage;\r\n    }\r\n\r\n    function updateProjectSecondaryMarketRoyaltyPercentage(uint256 _projectId, uint256 _secondMarketRoyalty) onlyArtist(_projectId) public {\r\n        require(_secondMarketRoyalty <= 100, \"Max of 100%\");\r\n        projectIdToSecondaryMarketRoyaltyPercentage[_projectId] = _secondMarketRoyalty;\r\n    }\r\n\r\n    function updateProjectDescription(uint256 _projectId, string memory _projectDescription) onlyArtist(_projectId) public {\r\n        projects[_projectId].description = _projectDescription;\r\n    }\r\n\r\n    function updateProjectWebsite(uint256 _projectId, string memory _projectWebsite) onlyArtist(_projectId) public {\r\n        projects[_projectId].website = _projectWebsite;\r\n    }\r\n\r\n    function updateProjectLicense(uint256 _projectId, string memory _projectLicense) onlyUnlocked(_projectId) onlyArtistOrWhitelisted(_projectId) public {\r\n        projects[_projectId].license = _projectLicense;\r\n    }\r\n\r\n    function updateProjectMaxInvocations(uint256 _projectId, uint256 _maxInvocations) onlyArtist(_projectId) public {\r\n        require((!projects[_projectId].locked || _maxInvocations<projects[_projectId].maxInvocations), \"Only if unlocked\");\r\n        require(_maxInvocations > projects[_projectId].invocations, \"You must set max invocations greater than current invocations\");\r\n        require(_maxInvocations <= ONE_MILLION, \"Cannot exceed 1,000,000\");\r\n        projects[_projectId].maxInvocations = _maxInvocations;\r\n    }\r\n\r\n    function toggleProjectUseHashString(uint256 _projectId) onlyUnlocked(_projectId) onlyArtistOrWhitelisted(_projectId) public {\r\n      require(projects[_projectId].invocations == 0, \"Cannot modify after a token is minted.\");\r\n      projects[_projectId].useHashString = !projects[_projectId].useHashString;\r\n    }\r\n\r\n    function addProjectScript(uint256 _projectId, string memory _script) onlyUnlocked(_projectId) onlyArtistOrWhitelisted(_projectId) public {\r\n        projects[_projectId].scripts[projects[_projectId].scriptCount] = _script;\r\n        projects[_projectId].scriptCount = projects[_projectId].scriptCount.add(1);\r\n    }\r\n\r\n    function updateProjectScript(uint256 _projectId, uint256 _scriptId, string memory _script) onlyUnlocked(_projectId) onlyArtistOrWhitelisted(_projectId) public {\r\n        require(_scriptId < projects[_projectId].scriptCount, \"scriptId out of range\");\r\n        projects[_projectId].scripts[_scriptId] = _script;\r\n    }\r\n\r\n    function removeProjectLastScript(uint256 _projectId) onlyUnlocked(_projectId) onlyArtistOrWhitelisted(_projectId) public {\r\n        require(projects[_projectId].scriptCount > 0, \"there are no scripts to remove\");\r\n        delete projects[_projectId].scripts[projects[_projectId].scriptCount - 1];\r\n        projects[_projectId].scriptCount = projects[_projectId].scriptCount.sub(1);\r\n    }\r\n\r\n    function updateProjectScriptJSON(uint256 _projectId, string memory _projectScriptJSON) onlyUnlocked(_projectId) onlyArtistOrWhitelisted(_projectId) public {\r\n        projects[_projectId].scriptJSON = _projectScriptJSON;\r\n    }\r\n\r\n    function updateProjectIpfsHash(uint256 _projectId, string memory _ipfsHash) onlyUnlocked(_projectId) onlyArtistOrWhitelisted(_projectId) public {\r\n        projects[_projectId].ipfsHash = _ipfsHash;\r\n    }\r\n\r\n    function updateProjectBaseURI(uint256 _projectId, string memory _newBaseURI) onlyArtist(_projectId) public {\r\n        projects[_projectId].projectBaseURI = _newBaseURI;\r\n    }\r\n\r\n    function updateProjectBaseIpfsURI(uint256 _projectId, string memory _projectBaseIpfsURI) onlyArtist(_projectId) public {\r\n        projects[_projectId].projectBaseIpfsURI = _projectBaseIpfsURI;\r\n    }\r\n\r\n    function toggleProjectUseIpfsForStatic(uint256 _projectId) onlyArtist(_projectId) public {\r\n        require(!projects[_projectId].dynamic, \"can only set static IPFS hash for static projects\");\r\n        projects[_projectId].useIpfs = !projects[_projectId].useIpfs;\r\n    }\r\n\r\n    function toggleProjectIsDynamic(uint256 _projectId) onlyUnlocked(_projectId) onlyArtistOrWhitelisted(_projectId) public {\r\n      require(projects[_projectId].invocations == 0, \"Can not switch after a token is minted.\");\r\n        if (projects[_projectId].dynamic) {\r\n            projects[_projectId].useHashString = false;\r\n        } else {\r\n            projects[_projectId].useHashString = true;\r\n        }\r\n        projects[_projectId].dynamic = !projects[_projectId].dynamic;\r\n    }\r\n\r\n    function overrideTokenDynamicImageWithIpfsLink(uint256 _tokenId, string memory _ipfsHash) onlyArtist(tokenIdToProjectId[_tokenId]) public {\r\n        staticIpfsImageLink[_tokenId] = _ipfsHash;\r\n    }\r\n\r\n    function clearTokenIpfsImageUri(uint256 _tokenId) onlyArtist(tokenIdToProjectId[_tokenId]) public {\r\n        delete staticIpfsImageLink[tokenIdToProjectId[_tokenId]];\r\n    }\r\n\r\n    function projectDetails(uint256 _projectId) view public returns (string memory projectName, string memory artist, string memory description, string memory website, string memory license, bool dynamic) {\r\n        projectName = projects[_projectId].name;\r\n        artist = projects[_projectId].artist;\r\n        description = projects[_projectId].description;\r\n        website = projects[_projectId].website;\r\n        license = projects[_projectId].license;\r\n        dynamic = projects[_projectId].dynamic;\r\n    }\r\n\r\n    function projectTokenInfo(uint256 _projectId) view public returns (address artistAddress, uint256 pricePerTokenInWei, uint256 invocations, uint256 maxInvocations, bool active, address additionalPayee, uint256 additionalPayeePercentage ,string memory currency, address currencyAddress) {\r\n        artistAddress = projectIdToArtistAddress[_projectId];\r\n        pricePerTokenInWei = projectIdToPricePerTokenInWei[_projectId];\r\n        invocations = projects[_projectId].invocations;\r\n        maxInvocations = projects[_projectId].maxInvocations;\r\n        active = projects[_projectId].active;\r\n        additionalPayee = projectIdToAdditionalPayee[_projectId];\r\n        additionalPayeePercentage = projectIdToAdditionalPayeePercentage[_projectId];\r\n        currency = projectIdToCurrencySymbol[_projectId];\r\n        currencyAddress = projectIdToCurrencyAddress[_projectId];\r\n    }\r\n\r\n    function projectScriptInfo(uint256 _projectId) view public returns (string memory scriptJSON, uint256 scriptCount, bool useHashString, string memory ipfsHash, bool locked, bool paused) {\r\n        scriptJSON = projects[_projectId].scriptJSON;\r\n        scriptCount = projects[_projectId].scriptCount;\r\n        useHashString = projects[_projectId].useHashString;\r\n        ipfsHash = projects[_projectId].ipfsHash;\r\n        locked = projects[_projectId].locked;\r\n        paused = projects[_projectId].paused;\r\n    }\r\n\r\n    function projectScriptByIndex(uint256 _projectId, uint256 _index) view public returns (string memory){\r\n        return projects[_projectId].scripts[_index];\r\n    }\r\n\r\n    function projectURIInfo(uint256 _projectId) view public returns (string memory projectBaseURI, string memory projectBaseIpfsURI, bool useIpfs) {\r\n        projectBaseURI = projects[_projectId].projectBaseURI;\r\n        projectBaseIpfsURI = projects[_projectId].projectBaseIpfsURI;\r\n        useIpfs = projects[_projectId].useIpfs;\r\n    }\r\n\r\n    function projectShowAllTokens(uint _projectId) public view returns (uint256[] memory){\r\n        return projectIdToTokenIds[_projectId];\r\n    }\r\n\r\n    function tokensOfOwner(address owner) external view returns (uint256[] memory) {\r\n        return _tokensOfOwner(owner);\r\n    }\r\n\r\n    function getRoyaltyData(uint256 _tokenId) public view returns (address artistAddress, address additionalPayee, uint256 additionalPayeePercentage, uint256 royaltyFeeByID) {\r\n        artistAddress = projectIdToArtistAddress[tokenIdToProjectId[_tokenId]];\r\n        additionalPayee = projectIdToAdditionalPayee[tokenIdToProjectId[_tokenId]];\r\n        additionalPayeePercentage = projectIdToAdditionalPayeePercentage[tokenIdToProjectId[_tokenId]];\r\n        royaltyFeeByID = projectIdToSecondaryMarketRoyaltyPercentage[tokenIdToProjectId[_tokenId]];\r\n    }\r\n\r\n    function tokenURI(uint256 _tokenId) external view onlyValidTokenId(_tokenId) returns (string memory) {\r\n        if (bytes(staticIpfsImageLink[_tokenId]).length > 0) {\r\n            return Strings.strConcat(projects[tokenIdToProjectId[_tokenId]].projectBaseIpfsURI, staticIpfsImageLink[_tokenId]);\r\n        }\r\n\r\n        if (!projects[tokenIdToProjectId[_tokenId]].dynamic && projects[tokenIdToProjectId[_tokenId]].useIpfs) {\r\n            return Strings.strConcat(projects[tokenIdToProjectId[_tokenId]].projectBaseIpfsURI, projects[tokenIdToProjectId[_tokenId]].ipfsHash);\r\n        }\r\n\r\n        return Strings.strConcat(projects[tokenIdToProjectId[_tokenId]].projectBaseURI, Strings.uint2str(_tokenId));\r\n    }\r\n}",
    "sourcePath": "C:\\Users\\feder\\Code\\generative-art-hash\\src\\contracts\\Artblocks.sol",
    "compiler": {
        "name": "solc",
        "version": "0.5.0+commit.1d4f565a.Emscripten.clang"
    },
    "schemaVersion": "3.4.4",
    "updatedAt": "2022-02-16T19:50:25.779Z",
    "devdoc": {
        "methods": {
            "name()": {
                "details": "Gets the token name\r",
                "return": "string representing the token name\r"
            },
            "supportsInterface(bytes4)": {
                "details": "See `IERC165.supportsInterface`.\r      * Time complexity O(1), guaranteed to always use less than 30 000 gas.\r"
            },
            "symbol()": {
                "details": "Gets the token symbol\r",
                "return": "string representing the token symbol\r"
            },
            "tokenByIndex(uint256)": {
                "details": "Gets the token ID at a given index of all the tokens in this contract\r Reverts if the index is greater or equal to the total number of tokens.\r",
                "params": {
                    "index": "uint256 representing the index to be accessed of the tokens list\r"
                },
                "return": "uint256 token ID at the given index of the tokens list\r"
            },
            "tokenOfOwnerByIndex(address,uint256)": {
                "details": "Gets the token ID at a given index of the tokens list of the requested owner.\r",
                "params": {
                    "index": "uint256 representing the index to be accessed of the requested tokens list\r",
                    "owner": "address owning the tokens list to be accessed\r"
                },
                "return": "uint256 token ID at the given index of the tokens list owned by the requested address\r"
            },
            "totalSupply()": {
                "details": "Gets the total amount of tokens stored by the contract.\r",
                "return": "uint256 representing the total amount of tokens\r"
            }
        }
    },
    "userdoc": {
        "methods": {}
    }
}